{
  "contractName": "AntiMoneyLaundering",
  "abi": [
    {
      "constant": true,
      "inputs": [
        {
          "name": "_sender",
          "type": "address"
        },
        {
          "name": "amount",
          "type": "uint256"
        }
      ],
      "name": "transactionIsBelowEmissionLimit",
      "outputs": [
        {
          "name": "",
          "type": "bool"
        }
      ],
      "payable": false,
      "stateMutability": "view",
      "type": "function"
    },
    {
      "constant": true,
      "inputs": [
        {
          "name": "_receiver",
          "type": "address"
        },
        {
          "name": "amount",
          "type": "uint256"
        }
      ],
      "name": "transactionIsBelowReceptionLimit",
      "outputs": [
        {
          "name": "",
          "type": "bool"
        }
      ],
      "payable": false,
      "stateMutability": "view",
      "type": "function"
    },
    {
      "constant": true,
      "inputs": [],
      "name": "owner",
      "outputs": [
        {
          "name": "",
          "type": "address"
        }
      ],
      "payable": false,
      "stateMutability": "view",
      "type": "function"
    },
    {
      "constant": false,
      "inputs": [
        {
          "name": "_receiver",
          "type": "address"
        },
        {
          "name": "amount",
          "type": "uint256"
        }
      ],
      "name": "transactionIsBelowCumulatedReceptionLimit",
      "outputs": [
        {
          "name": "",
          "type": "bool"
        }
      ],
      "payable": false,
      "stateMutability": "nonpayable",
      "type": "function"
    },
    {
      "constant": false,
      "inputs": [
        {
          "name": "_holder",
          "type": "address"
        },
        {
          "name": "_emissionLimit",
          "type": "uint256"
        },
        {
          "name": "_receptionLimit",
          "type": "uint256"
        },
        {
          "name": "_cumulatedEmissionLimit",
          "type": "uint256"
        },
        {
          "name": "_cumulatedReceptionLimit",
          "type": "uint256"
        }
      ],
      "name": "setHolderLimit",
      "outputs": [
        {
          "name": "",
          "type": "bool"
        }
      ],
      "payable": false,
      "stateMutability": "nonpayable",
      "type": "function"
    },
    {
      "constant": true,
      "inputs": [
        {
          "name": "timestamp",
          "type": "uint256"
        }
      ],
      "name": "toDate",
      "outputs": [
        {
          "name": "",
          "type": "uint256[2]"
        }
      ],
      "payable": false,
      "stateMutability": "pure",
      "type": "function"
    },
    {
      "constant": false,
      "inputs": [
        {
          "name": "_sender",
          "type": "address"
        },
        {
          "name": "amount",
          "type": "uint256"
        }
      ],
      "name": "transactionIsBelowCumulatedEmissionLimit",
      "outputs": [
        {
          "name": "",
          "type": "bool"
        }
      ],
      "payable": false,
      "stateMutability": "nonpayable",
      "type": "function"
    },
    {
      "constant": false,
      "inputs": [
        {
          "name": "newOwner",
          "type": "address"
        }
      ],
      "name": "getCurrentYear",
      "outputs": [
        {
          "name": "",
          "type": "uint256"
        }
      ],
      "payable": false,
      "stateMutability": "nonpayable",
      "type": "function"
    },
    {
      "anonymous": false,
      "inputs": [
        {
          "indexed": true,
          "name": "previousOwner",
          "type": "address"
        },
        {
          "indexed": true,
          "name": "newOwner",
          "type": "address"
        }
      ],
      "name": "getCurrentMonth",
      "type": "function",
      "constant": false,
      "outputs": [
        {
          "name": "",
          "type": "uint256"
        }
      ],
      "payable": false,
      "stateMutability": "nonpayable"
    },
    {
      "constant": false,
      "inputs": [
        {
          "name": "newOwner",
          "type": "address"
        }
      ],
      "name": "transferOwnership",
      "outputs": [],
      "payable": false,
      "stateMutability": "nonpayable",
      "type": "function"
    },
    {
      "anonymous": false,
      "inputs": [
        {
          "indexed": true,
          "name": "previousOwner",
          "type": "address"
        },
        {
          "indexed": true,
          "name": "newOwner",
          "type": "address"
        }
      ],
      "name": "OwnershipTransferred",
      "type": "event"
    }
  ],
  "bytecode": "0x60606040526032600455603260055560326006556032600755336000806101000a81548173ffffffffffffffffffffffffffffffffffffffff021916908373ffffffffffffffffffffffffffffffffffffffff160217905550610f62806100676000396000f3006060604052600436106100a4576000357c0100000000000000000000000000000000000000000000000000000000900463ffffffff16806375d75387146100a95780637c0b8c2f146101035780638da5cb5b1461015d578063991adfc9146101b25780639d3da33e1461020c578063a11e22d914610269578063a7d8d9a1146102c8578063ce41607a14610322578063ddd1b67e1461034b578063f2fde38b14610374575b600080fd5b34156100b457600080fd5b6100e9600480803573ffffffffffffffffffffffffffffffffffffffff169060200190919080359060200190919050506103ad565b604051808215151515815260200191505060405180910390f35b341561010e57600080fd5b610143600480803573ffffffffffffffffffffffffffffffffffffffff1690602001909190803590602001909190505061040e565b604051808215151515815260200191505060405180910390f35b341561016857600080fd5b61017061046f565b604051808273ffffffffffffffffffffffffffffffffffffffff1673ffffffffffffffffffffffffffffffffffffffff16815260200191505060405180910390f35b34156101bd57600080fd5b6101f2600480803573ffffffffffffffffffffffffffffffffffffffff16906020019091908035906020019091905050610494565b604051808215151515815260200191505060405180910390f35b341561021757600080fd5b610267600480803573ffffffffffffffffffffffffffffffffffffffff16906020019091908035906020019091908035906020019091908035906020019091908035906020019091905050610781565b005b341561027457600080fd5b61028a60048080359060200190919050506108f3565b6040518082600260200280838360005b838110156102b557808201518184015260208101905061029a565b5050505090500191505060405180910390f35b34156102d357600080fd5b610308600480803573ffffffffffffffffffffffffffffffffffffffff169060200190919080359060200190919050506109a6565b604051808215151515815260200191505060405180910390f35b341561032d57600080fd5b610335610c93565b6040518082815260200191505060405180910390f35b341561035657600080fd5b61035e610cb1565b6040518082815260200191505060405180910390f35b341561037f57600080fd5b6103ab600480803573ffffffffffffffffffffffffffffffffffffffff16906020019091905050610ccf565b005b600080600860008573ffffffffffffffffffffffffffffffffffffffff1673ffffffffffffffffffffffffffffffffffffffff16815260200190815260200160002054905060008114156104015760045490505b8083111591505092915050565b600080600960008573ffffffffffffffffffffffffffffffffffffffff1673ffffffffffffffffffffffffffffffffffffffff16815260200190815260200160002054905060008114156104625760055490505b8083111591505092915050565b6000809054906101000a900473ffffffffffffffffffffffffffffffffffffffff1681565b60008061049f610cb1565b905080600d60008673ffffffffffffffffffffffffffffffffffffffff1673ffffffffffffffffffffffffffffffffffffffff168152602001908152602001600020541415156105875782600f60008673ffffffffffffffffffffffffffffffffffffffff1673ffffffffffffffffffffffffffffffffffffffff16815260200190815260200160002060008381526020019081526020016000208190555080600d60008673ffffffffffffffffffffffffffffffffffffffff1673ffffffffffffffffffffffffffffffffffffffff1681526020019081526020016000208190555061063f565b6105ea83600f60008773ffffffffffffffffffffffffffffffffffffffff1673ffffffffffffffffffffffffffffffffffffffff168152602001908152602001600020600084815260200190815260200160002054610e2490919063ffffffff16565b600f60008673ffffffffffffffffffffffffffffffffffffffff1673ffffffffffffffffffffffffffffffffffffffff1681526020019081526020016000206000838152602001908152602001600020819055505b6000600b60008673ffffffffffffffffffffffffffffffffffffffff1673ffffffffffffffffffffffffffffffffffffffff1681526020019081526020016000205414156106e457600754600f60008673ffffffffffffffffffffffffffffffffffffffff1673ffffffffffffffffffffffffffffffffffffffff1681526020019081526020016000206000838152602001908152602001600020541115915061077a565b600b60008573ffffffffffffffffffffffffffffffffffffffff1673ffffffffffffffffffffffffffffffffffffffff16815260200190815260200160002054600f60008673ffffffffffffffffffffffffffffffffffffffff1673ffffffffffffffffffffffffffffffffffffffff168152602001908152602001600020600083815260200190815260200160002054111591505b5092915050565b6000809054906101000a900473ffffffffffffffffffffffffffffffffffffffff1673ffffffffffffffffffffffffffffffffffffffff163373ffffffffffffffffffffffffffffffffffffffff161415156107dc57600080fd5b83600860008773ffffffffffffffffffffffffffffffffffffffff1673ffffffffffffffffffffffffffffffffffffffff1681526020019081526020016000208190555082600960008773ffffffffffffffffffffffffffffffffffffffff1673ffffffffffffffffffffffffffffffffffffffff1681526020019081526020016000208190555081600a60008773ffffffffffffffffffffffffffffffffffffffff1673ffffffffffffffffffffffffffffffffffffffff1681526020019081526020016000208190555080600b60008773ffffffffffffffffffffffffffffffffffffffff1673ffffffffffffffffffffffffffffffffffffffff168152602001908152602001600020819055505050505050565b6108fb610f0f565b600080600080620151808681151561090f57fe5b0493506237bb496139bc85612710020181151561092857fe5b049250612710836237bb490281151561093d57fe5b0484039150600082101561096957600183039250612710836237bb490281151561096357fe5b04840391505b6001610bf46034846064020181151561097e57fe5b0401905060408051908101604052806107b28501815260200182815250945050505050919050565b6000806109b1610cb1565b905080600c60008673ffffffffffffffffffffffffffffffffffffffff1673ffffffffffffffffffffffffffffffffffffffff16815260200190815260200160002054141515610a995782600e60008673ffffffffffffffffffffffffffffffffffffffff1673ffffffffffffffffffffffffffffffffffffffff16815260200190815260200160002060008381526020019081526020016000208190555080600c60008673ffffffffffffffffffffffffffffffffffffffff1673ffffffffffffffffffffffffffffffffffffffff16815260200190815260200160002081905550610b51565b610afc83600e60008773ffffffffffffffffffffffffffffffffffffffff1673ffffffffffffffffffffffffffffffffffffffff168152602001908152602001600020600084815260200190815260200160002054610e2490919063ffffffff16565b600e60008673ffffffffffffffffffffffffffffffffffffffff1673ffffffffffffffffffffffffffffffffffffffff1681526020019081526020016000206000838152602001908152602001600020819055505b6000600a60008673ffffffffffffffffffffffffffffffffffffffff1673ffffffffffffffffffffffffffffffffffffffff168152602001908152602001600020541415610bf657600654600e60008673ffffffffffffffffffffffffffffffffffffffff1673ffffffffffffffffffffffffffffffffffffffff16815260200190815260200160002060008381526020019081526020016000205411159150610c8c565b600a60008573ffffffffffffffffffffffffffffffffffffffff1673ffffffffffffffffffffffffffffffffffffffff16815260200190815260200160002054600e60008673ffffffffffffffffffffffffffffffffffffffff1673ffffffffffffffffffffffffffffffffffffffff168152602001908152602001600020600083815260200190815260200160002054111591505b5092915050565b600042600354111515610ca957610ca8610e42565b5b600154905090565b600042600354111515610cc757610cc6610e42565b5b600254905090565b6000809054906101000a900473ffffffffffffffffffffffffffffffffffffffff1673ffffffffffffffffffffffffffffffffffffffff163373ffffffffffffffffffffffffffffffffffffffff16141515610d2a57600080fd5b600073ffffffffffffffffffffffffffffffffffffffff168173ffffffffffffffffffffffffffffffffffffffff1614151515610d6657600080fd5b8073ffffffffffffffffffffffffffffffffffffffff166000809054906101000a900473ffffffffffffffffffffffffffffffffffffffff1673ffffffffffffffffffffffffffffffffffffffff167f8be0079c531659141344cd1fd0a4f28419497f9722a3daafe3b4186f6b6457e060405160405180910390a3806000806101000a81548173ffffffffffffffffffffffffffffffffffffffff021916908373ffffffffffffffffffffffffffffffffffffffff16021790555050565b6000808284019050838110151515610e3857fe5b8091505092915050565b610e4a610f0f565b60006003541415610e9957610e5e426108f3565b9050806000600281101515610e6f57fe5b6020020151600181905550806001600281101515610e8957fe5b6020020151600281905550610eca565b600c6002541415610ebc5760016002819055506001805401600181905550610ec9565b6001600254016002819055505b5b600160646034600254610bf40203811515610ee157fe5b046127106139bc6237bb496107b2600154030203811515610efe57fe5b040101620151800260038190555050565b60408051908101604052806002905b6000815260200190600190039081610f1e57905050905600a165627a7a72305820c984f08be6144c12912b817da68d75e40ede924456239a5b30b7d7144112b85a0029",
  "source": "pragma solidity ^0.4.11;\n\n\nimport 'zeppelin-solidity/contracts/ownership/Ownable.sol';\nimport 'zeppelin-solidity/contracts/math/SafeMath.sol';\nimport './Monthly.sol';\n\n/**\n * @title AntiMoneyLaundering\n * @dev Base contract which provides to children an anti money laundering capability.\n */\ncontract AntiMoneyLaundering is Ownable, Monthly {\n  using SafeMath for uint256;\n\n  uint256 defaultEmissionLimit = 50;\n  uint256 defaultReceptionLimit = 50;\n  uint256 defaultCumulatedEmissionLimit = 50;\n  uint256 defaultCumulatedReceptionLimit = 50;\n\n  // holder => limit\n  mapping(address => uint256) emissionLimit;\n  mapping(address => uint256) receptionLimit;\n\n  // holder => cumulatedLimit\n  mapping(address => uint256) cumulatedEmissionLimit;\n  mapping(address => uint256) cumulatedReceptionLimit;\n\n  // holder => date\n  mapping(address => uint256) lastEmissionMonth;\n  mapping(address => uint256) lastReceptionMonth;\n\n  // holder => month => amount\n  mapping(address => mapping(uint256 => uint256)) cumulatedEmissionAmount;\n  mapping(address => mapping(uint256 => uint256)) cumulatedReceptionAmount;\n\n  /**\n   * @dev Modifier to make a function callable only when the emission is compliant with AML\n   */\n  modifier complyAMLonEmission(address _sender, uint256 amount) {\n    require(transactionIsBelowEmissionLimit(_sender, amount));\n    require(transactionIsBelowCumulatedEmissionLimit(_sender, amount));\n    \n    _;\n  }\n\n  /**\n   * @dev Modifier to make a function callable only when the reception is compliant with AML\n   */\n  modifier complyAMLonReception(address _receiver, uint256 amount) {\n    require(transactionIsBelowReceptionLimit(_receiver, amount));\n    require(transactionIsBelowCumulatedReceptionLimit(_receiver, amount));\n    _;\n  }\n\n  /**\n   * @dev Function set the cumulatedEmissionLimit\n   */\n  function setHolderLimit(address _holder,\n\t\tuint256 _emissionLimit, uint256 _receptionLimit,\n\t\tuint256 _cumulatedEmissionLimit, uint256 _cumulatedReceptionLimit) onlyOwner public {\n    emissionLimit[_holder]=_emissionLimit;\n    receptionLimit[_holder]=_receptionLimit;\n    cumulatedEmissionLimit[_holder] = _cumulatedEmissionLimit;\n    cumulatedReceptionLimit[_holder] = _cumulatedReceptionLimit;\n  }\n\n  /**\n   * @dev Function validating if the emission is below the emission limit\n   */\n  function transactionIsBelowEmissionLimit(address _sender, uint256 amount) view public returns (bool) {\n    uint256 transactionLimit = emissionLimit[_sender];\n    if(transactionLimit == 0) {\n      transactionLimit = defaultEmissionLimit;\n    }\n    return (amount <= transactionLimit);\n  }\n\n  /**\n   * @dev Function validating if the emission is below the cumulated yearly emission limit\n   */\n  function transactionIsBelowCumulatedEmissionLimit(address _sender, uint256 amount) public returns (bool) {\n    uint256 month = getCurrentMonth();\n\n    if(lastEmissionMonth[_sender] != month) {\n      cumulatedEmissionAmount[_sender][month] = amount;\n      lastEmissionMonth[_sender] = month;\n    } else {   \n      cumulatedEmissionAmount[_sender][month] =\n         cumulatedEmissionAmount[_sender][month].add(amount);\n    }\n\n    if(cumulatedEmissionLimit[_sender] == 0) {\n      return cumulatedEmissionAmount[_sender][month] <= defaultCumulatedEmissionLimit;\n    }\n    return cumulatedEmissionAmount[_sender][month] <= cumulatedEmissionLimit[_sender];\n  }\n\n  /**\n   * @dev Function validating if the reception is below the reception limit\n   */\n  function transactionIsBelowReceptionLimit(address _receiver, uint256 amount) view public returns (bool) {\n    uint256 transactionLimit = receptionLimit[_receiver];\n    if(transactionLimit == 0) {\n      transactionLimit = defaultReceptionLimit;\n    }\n    return (amount <= transactionLimit);\n  }\n\n  /**\n   * @dev Function validating if the reception is below the cumulated yearly reception limit\n   */\n  function transactionIsBelowCumulatedReceptionLimit(address _receiver, uint256 amount) public returns (bool) {\n    uint256 month = getCurrentMonth();\n\n    if(lastReceptionMonth[_receiver] != month) {\n      cumulatedReceptionAmount[_receiver][month] = amount;\n      lastReceptionMonth[_receiver] = month;\n    } else {\n      cumulatedReceptionAmount[_receiver][month] =\n         cumulatedReceptionAmount[_receiver][month].add(amount);\n    }\n\n    if(cumulatedReceptionLimit[_receiver] == 0) {\n      return cumulatedReceptionAmount[_receiver][month] <= defaultCumulatedReceptionLimit;\n    }\n    return cumulatedReceptionAmount[_receiver][month] <= cumulatedReceptionLimit[_receiver];\n  }\n}\n",
  "sourcePath": "/home/node/projects/fiatToken/contracts/AntiMoneyLaundering.sol",
  "compiler": {
    "name": "solc",
    "version": "0.4.18+commit.9cf6e910.Emscripten.clang"
  },
  "schemaVersion": "1.0.1",
  "updatedAt": "2017-12-08T01:10:17.745Z"
}