{
  "contractName": "ChargeableToken",
  "abi": [
    {
      "constant": true,
      "inputs": [],
      "name": "totalSupply",
      "outputs": [
        {
          "name": "",
          "type": "uint256"
        }
      ],
      "payable": false,
      "stateMutability": "view",
      "type": "function"
    },
    {
      "constant": false,
      "inputs": [
        {
          "name": "_tokenPricePerCharge",
          "type": "uint256"
        }
      ],
      "name": "setTokenPricePerCharge",
      "outputs": [],
      "payable": false,
      "stateMutability": "nonpayable",
      "type": "function"
    },
    {
      "constant": true,
      "inputs": [],
      "name": "weiProvidedPerWallet",
      "outputs": [
        {
          "name": "",
          "type": "uint256"
        }
      ],
      "payable": false,
      "stateMutability": "view",
      "type": "function"
    },
    {
      "constant": true,
      "inputs": [],
      "name": "weiContractCapacity",
      "outputs": [
        {
          "name": "",
          "type": "uint256"
        }
      ],
      "payable": false,
      "stateMutability": "view",
      "type": "function"
    },
    {
      "constant": false,
      "inputs": [],
      "name": "chargeWallet",
      "outputs": [],
      "payable": false,
      "stateMutability": "nonpayable",
      "type": "function"
    },
    {
      "constant": false,
      "inputs": [
        {
          "name": "_weiProvidedPerWallet",
          "type": "uint256"
        }
      ],
      "name": "setWeiProvidedPerWallet",
      "outputs": [],
      "payable": false,
      "stateMutability": "nonpayable",
      "type": "function"
    },
    {
      "constant": true,
      "inputs": [
        {
          "name": "_owner",
          "type": "address"
        }
      ],
      "name": "balanceOf",
      "outputs": [
        {
          "name": "balance",
          "type": "uint256"
        }
      ],
      "payable": false,
      "stateMutability": "view",
      "type": "function"
    },
    {
      "constant": true,
      "inputs": [],
      "name": "owner",
      "outputs": [
        {
          "name": "",
          "type": "address"
        }
      ],
      "payable": false,
      "stateMutability": "view",
      "type": "function"
    },
    {
      "constant": false,
      "inputs": [],
      "name": "rechargeContract",
      "outputs": [],
      "payable": true,
      "stateMutability": "payable",
      "type": "function"
    },
    {
      "constant": true,
      "inputs": [],
      "name": "tokenPricePerCharge",
      "outputs": [
        {
          "name": "",
          "type": "uint256"
        }
      ],
      "payable": false,
      "stateMutability": "view",
      "type": "function"
    },
    {
      "constant": false,
      "inputs": [
        {
          "name": "_to",
          "type": "address"
        },
        {
          "name": "_value",
          "type": "uint256"
        }
      ],
      "name": "transfer",
      "outputs": [
        {
          "name": "",
          "type": "bool"
        }
      ],
      "payable": false,
      "stateMutability": "nonpayable",
      "type": "function"
    },
    {
      "constant": false,
      "inputs": [
        {
          "name": "_weiContractCapacity",
          "type": "uint256"
        }
      ],
      "name": "setWeiContractCapacity",
      "outputs": [],
      "payable": false,
      "stateMutability": "nonpayable",
      "type": "function"
    },
    {
      "constant": false,
      "inputs": [
        {
          "name": "newOwner",
          "type": "address"
        }
      ],
      "name": "transferOwnership",
      "outputs": [],
      "payable": false,
      "stateMutability": "nonpayable",
      "type": "function"
    },
    {
      "anonymous": false,
      "inputs": [
        {
          "indexed": true,
          "name": "previousOwner",
          "type": "address"
        },
        {
          "indexed": true,
          "name": "newOwner",
          "type": "address"
        }
      ],
      "name": "OwnershipTransferred",
      "type": "event"
    },
    {
      "anonymous": false,
      "inputs": [
        {
          "indexed": true,
          "name": "from",
          "type": "address"
        },
        {
          "indexed": true,
          "name": "to",
          "type": "address"
        },
        {
          "indexed": false,
          "name": "value",
          "type": "uint256"
        }
      ],
      "name": "Transfer",
      "type": "event"
    }
  ],
  "bytecode": "0x606060405260006003556000600455600060055533600260006101000a81548173ffffffffffffffffffffffffffffffffffffffff021916908373ffffffffffffffffffffffffffffffffffffffff160217905550610a8e806100636000396000f3006060604052600436106100c5576000357c0100000000000000000000000000000000000000000000000000000000900463ffffffff16806318160ddd146100ca57806325cc2a74146100f35780632af4550a14610116578063516db4731461013f578063588d3b90146101685780636211a8a81461017d57806370a08231146101a05780638da5cb5b146101ed578063981dabec14610242578063a0d90bce1461024c578063a9059cbb14610275578063b55e99b1146102cf578063f2fde38b146102f2575b600080fd5b34156100d557600080fd5b6100dd61032b565b6040518082815260200191505060405180910390f35b34156100fe57600080fd5b6101146004808035906020019091905050610331565b005b341561012157600080fd5b610129610397565b6040518082815260200191505060405180910390f35b341561014a57600080fd5b61015261039d565b6040518082815260200191505060405180910390f35b341561017357600080fd5b61017b6103a3565b005b341561018857600080fd5b61019e6004808035906020019091905050610592565b005b34156101ab57600080fd5b6101d7600480803573ffffffffffffffffffffffffffffffffffffffff169060200190919050506105f8565b6040518082815260200191505060405180910390f35b34156101f857600080fd5b610200610641565b604051808273ffffffffffffffffffffffffffffffffffffffff1673ffffffffffffffffffffffffffffffffffffffff16815260200191505060405180910390f35b61024a610667565b005b341561025757600080fd5b61025f610691565b6040518082815260200191505060405180910390f35b341561028057600080fd5b6102b5600480803573ffffffffffffffffffffffffffffffffffffffff16906020019091908035906020019091905050610697565b604051808215151515815260200191505060405180910390f35b34156102da57600080fd5b6102f0600480803590602001909190505061086d565b005b34156102fd57600080fd5b610329600480803573ffffffffffffffffffffffffffffffffffffffff169060200190919050506108d3565b005b60005481565b600260009054906101000a900473ffffffffffffffffffffffffffffffffffffffff1673ffffffffffffffffffffffffffffffffffffffff163373ffffffffffffffffffffffffffffffffffffffff1614151561038d57600080fd5b8060058190555050565b60045481565b60035481565b60006005541115156103b457600080fd5b6004543373ffffffffffffffffffffffffffffffffffffffff1631111515156103dc57600080fd5b610430600554600160003373ffffffffffffffffffffffffffffffffffffffff1673ffffffffffffffffffffffffffffffffffffffff16815260200190815260200160002054610a2b90919063ffffffff16565b600160003373ffffffffffffffffffffffffffffffffffffffff1673ffffffffffffffffffffffffffffffffffffffff168152602001908152602001600020819055506104e960055460016000600260009054906101000a900473ffffffffffffffffffffffffffffffffffffffff1673ffffffffffffffffffffffffffffffffffffffff1673ffffffffffffffffffffffffffffffffffffffff16815260200190815260200160002054610a4490919063ffffffff16565b60016000600260009054906101000a900473ffffffffffffffffffffffffffffffffffffffff1673ffffffffffffffffffffffffffffffffffffffff1673ffffffffffffffffffffffffffffffffffffffff168152602001908152602001600020819055503373ffffffffffffffffffffffffffffffffffffffff166108fc6004549081150290604051600060405180830381858888f19350505050151561059057600080fd5b565b600260009054906101000a900473ffffffffffffffffffffffffffffffffffffffff1673ffffffffffffffffffffffffffffffffffffffff163373ffffffffffffffffffffffffffffffffffffffff161415156105ee57600080fd5b8060048190555050565b6000600160008373ffffffffffffffffffffffffffffffffffffffff1673ffffffffffffffffffffffffffffffffffffffff168152602001908152602001600020549050919050565b600260009054906101000a900473ffffffffffffffffffffffffffffffffffffffff1681565b6003543073ffffffffffffffffffffffffffffffffffffffff16311115151561068f57600080fd5b565b60055481565b60008073ffffffffffffffffffffffffffffffffffffffff168373ffffffffffffffffffffffffffffffffffffffff16141515156106d457600080fd5b61072682600160003373ffffffffffffffffffffffffffffffffffffffff1673ffffffffffffffffffffffffffffffffffffffff16815260200190815260200160002054610a2b90919063ffffffff16565b600160003373ffffffffffffffffffffffffffffffffffffffff1673ffffffffffffffffffffffffffffffffffffffff168152602001908152602001600020819055506107bb82600160008673ffffffffffffffffffffffffffffffffffffffff1673ffffffffffffffffffffffffffffffffffffffff16815260200190815260200160002054610a4490919063ffffffff16565b600160008573ffffffffffffffffffffffffffffffffffffffff1673ffffffffffffffffffffffffffffffffffffffff168152602001908152602001600020819055508273ffffffffffffffffffffffffffffffffffffffff163373ffffffffffffffffffffffffffffffffffffffff167fddf252ad1be2c89b69c2b068fc378daa952ba7f163c4a11628f55a4df523b3ef846040518082815260200191505060405180910390a36001905092915050565b600260009054906101000a900473ffffffffffffffffffffffffffffffffffffffff1673ffffffffffffffffffffffffffffffffffffffff163373ffffffffffffffffffffffffffffffffffffffff161415156108c957600080fd5b8060038190555050565b600260009054906101000a900473ffffffffffffffffffffffffffffffffffffffff1673ffffffffffffffffffffffffffffffffffffffff163373ffffffffffffffffffffffffffffffffffffffff1614151561092f57600080fd5b600073ffffffffffffffffffffffffffffffffffffffff168173ffffffffffffffffffffffffffffffffffffffff161415151561096b57600080fd5b8073ffffffffffffffffffffffffffffffffffffffff16600260009054906101000a900473ffffffffffffffffffffffffffffffffffffffff1673ffffffffffffffffffffffffffffffffffffffff167f8be0079c531659141344cd1fd0a4f28419497f9722a3daafe3b4186f6b6457e060405160405180910390a380600260006101000a81548173ffffffffffffffffffffffffffffffffffffffff021916908373ffffffffffffffffffffffffffffffffffffffff16021790555050565b6000828211151515610a3957fe5b818303905092915050565b6000808284019050838110151515610a5857fe5b80915050929150505600a165627a7a72305820284133c8dc27cd6bcadeaa0465300f719fa2c145629c1442f8c88900fcc6c7f40029",
  "source": "pragma solidity ^0.4.11;\n\nimport 'zeppelin-solidity/contracts/ownership/Ownable.sol';\nimport 'zeppelin-solidity/contracts/token/BasicToken.sol';\nimport 'zeppelin-solidity/contracts/math/SafeMath.sol';\n\n/**\n * @title \n * @dev BasicToken contract which allows token holders to charge their wallet with some wei.\n * This mecanism is aimed at providing the GAS needed for running ERC20 wallets.\n */\ncontract ChargeableToken is BasicToken, Ownable {\n  using SafeMath for uint256;\n\n  uint256 public weiContractCapacity = 0;\n  uint256 public weiProvidedPerWallet = 0;\n  uint256 public tokenPricePerCharge = 0;\n\n  function setWeiContractCapacity(uint256 _weiContractCapacity) onlyOwner public {\n    weiContractCapacity = _weiContractCapacity;\n  }\n\n  function setWeiProvidedPerWallet(uint256 _weiProvidedPerWallet) onlyOwner public {\n    weiProvidedPerWallet = _weiProvidedPerWallet;\n  }\n\n  function setTokenPricePerCharge(uint256 _tokenPricePerCharge) onlyOwner public {\n    tokenPricePerCharge = _tokenPricePerCharge;\n  }\n\n  function chargeWallet() public {\n    require(tokenPricePerCharge > 0);\n    require(msg.sender.balance <= weiProvidedPerWallet);\n\n    // SafeMath.sub will throw if there is not enough balance.\n    balances[msg.sender] = balances[msg.sender].sub(tokenPricePerCharge);\n    balances[owner] = balances[owner].add(tokenPricePerCharge);\n\n    if(!msg.sender.send(weiProvidedPerWallet)){\n      revert();\n    } \n  }\n\n  function rechargeContract() public payable {\n    // The contract's balance has already been updated\n    require(this.balance <= weiContractCapacity);\n  }\n}\n",
  "sourcePath": "/home/node/projects/fiatToken/contracts/ChargeableToken.sol",
  "compiler": {
    "name": "solc",
    "version": "0.4.18+commit.9cf6e910.Emscripten.clang"
  },
  "schemaVersion": "1.0.1",
  "updatedAt": "2017-12-08T01:10:17.781Z"
}