{
  "contractName": "DemoShare",
  "abi": [
    {
      "constant": false,
      "inputs": [
        {
          "name": "_shareholders",
          "type": "address[]"
        }
      ],
      "name": "updateShareholders",
      "outputs": [],
      "payable": false,
      "stateMutability": "nonpayable",
      "type": "function"
    },
    {
      "constant": true,
      "inputs": [],
      "name": "shareholders",
      "outputs": [
        {
          "name": "",
          "type": "address[]"
        }
      ],
      "payable": false,
      "stateMutability": "view",
      "type": "function"
    },
    {
      "constant": true,
      "inputs": [],
      "name": "owner",
      "outputs": [
        {
          "name": "",
          "type": "address"
        }
      ],
      "payable": false,
      "stateMutability": "view",
      "type": "function"
    },
    {
      "constant": true,
      "inputs": [
        {
          "name": "",
          "type": "uint256"
        }
      ],
      "name": "shareholders",
      "outputs": [
        {
          "name": "",
          "type": "address"
        }
      ],
      "payable": false,
      "stateMutability": "view",
      "type": "function"
    },
    {
      "constant": true,
      "inputs": [
        {
          "name": "_address",
          "type": "address"
        }
      ],
      "name": "isShareholder",
      "outputs": [
        {
          "name": "",
          "type": "bool"
        }
      ],
      "payable": false,
      "stateMutability": "view",
      "type": "function"
    },
    {
      "constant": false,
      "inputs": [
        {
          "name": "newOwner",
          "type": "address"
        }
      ],
      "name": "transferOwnership",
      "outputs": [],
      "payable": false,
      "stateMutability": "nonpayable",
      "type": "function"
    },
    {
      "inputs": [
        {
          "name": "_token",
          "type": "address"
        }
      ],
      "payable": false,
      "stateMutability": "nonpayable",
      "type": "constructor"
    },
    {
      "anonymous": false,
      "inputs": [
        {
          "indexed": false,
          "name": "proposalId",
          "type": "uint256"
        }
      ],
      "name": "NewProposal",
      "type": "event"
    },
    {
      "anonymous": false,
      "inputs": [
        {
          "indexed": false,
          "name": "proposalId",
          "type": "uint256"
        },
        {
          "indexed": false,
          "name": "total",
          "type": "uint256"
        },
        {
          "indexed": false,
          "name": "approvals",
          "type": "uint256"
        },
        {
          "indexed": false,
          "name": "rejections",
          "type": "uint256"
        }
      ],
      "name": "Approved",
      "type": "event"
    },
    {
      "anonymous": false,
      "inputs": [
        {
          "indexed": false,
          "name": "proposalId",
          "type": "uint256"
        },
        {
          "indexed": false,
          "name": "total",
          "type": "uint256"
        },
        {
          "indexed": false,
          "name": "approvals",
          "type": "uint256"
        },
        {
          "indexed": false,
          "name": "rejections",
          "type": "uint256"
        }
      ],
      "name": "Rejected",
      "type": "event"
    },
    {
      "anonymous": false,
      "inputs": [
        {
          "indexed": false,
          "name": "_token",
          "type": "address"
        },
        {
          "indexed": false,
          "name": "_dividendAmount",
          "type": "uint256"
        }
      ],
      "name": "Distribution",
      "type": "event"
    },
    {
      "anonymous": false,
      "inputs": [
        {
          "indexed": true,
          "name": "previousOwner",
          "type": "address"
        },
        {
          "indexed": true,
          "name": "newOwner",
          "type": "address"
        }
      ],
      "name": "OwnershipTransferred",
      "type": "event"
    },
    {
      "constant": true,
      "inputs": [],
      "name": "token",
      "outputs": [
        {
          "name": "",
          "type": "address"
        }
      ],
      "payable": false,
      "stateMutability": "view",
      "type": "function"
    },
    {
      "constant": true,
      "inputs": [],
      "name": "currentProposalId",
      "outputs": [
        {
          "name": "",
          "type": "uint256"
        }
      ],
      "payable": false,
      "stateMutability": "view",
      "type": "function"
    },
    {
      "constant": true,
      "inputs": [],
      "name": "currentUrl",
      "outputs": [
        {
          "name": "",
          "type": "string"
        }
      ],
      "payable": false,
      "stateMutability": "view",
      "type": "function"
    },
    {
      "constant": true,
      "inputs": [],
      "name": "currentHash",
      "outputs": [
        {
          "name": "",
          "type": "uint256"
        }
      ],
      "payable": false,
      "stateMutability": "view",
      "type": "function"
    },
    {
      "constant": true,
      "inputs": [],
      "name": "currentDividendToken",
      "outputs": [
        {
          "name": "",
          "type": "address"
        }
      ],
      "payable": false,
      "stateMutability": "view",
      "type": "function"
    },
    {
      "constant": true,
      "inputs": [],
      "name": "startedAt",
      "outputs": [
        {
          "name": "",
          "type": "uint256"
        }
      ],
      "payable": false,
      "stateMutability": "view",
      "type": "function"
    },
    {
      "constant": true,
      "inputs": [],
      "name": "closedAt",
      "outputs": [
        {
          "name": "",
          "type": "uint256"
        }
      ],
      "payable": false,
      "stateMutability": "view",
      "type": "function"
    },
    {
      "constant": true,
      "inputs": [],
      "name": "voteApprovals",
      "outputs": [
        {
          "name": "",
          "type": "uint256"
        }
      ],
      "payable": false,
      "stateMutability": "view",
      "type": "function"
    },
    {
      "constant": true,
      "inputs": [],
      "name": "voteRejections",
      "outputs": [
        {
          "name": "",
          "type": "uint256"
        }
      ],
      "payable": false,
      "stateMutability": "view",
      "type": "function"
    },
    {
      "constant": true,
      "inputs": [
        {
          "name": "_address",
          "type": "address"
        }
      ],
      "name": "hasVoted",
      "outputs": [
        {
          "name": "",
          "type": "bool"
        }
      ],
      "payable": false,
      "stateMutability": "view",
      "type": "function"
    },
    {
      "constant": false,
      "inputs": [
        {
          "name": "_url",
          "type": "string"
        },
        {
          "name": "_hash",
          "type": "uint256"
        },
        {
          "name": "_dividendToken",
          "type": "address"
        }
      ],
      "name": "proposeVote",
      "outputs": [],
      "payable": false,
      "stateMutability": "nonpayable",
      "type": "function"
    },
    {
      "constant": false,
      "inputs": [],
      "name": "closeVote",
      "outputs": [],
      "payable": false,
      "stateMutability": "nonpayable",
      "type": "function"
    },
    {
      "constant": false,
      "inputs": [],
      "name": "approveProposal",
      "outputs": [],
      "payable": false,
      "stateMutability": "nonpayable",
      "type": "function"
    },
    {
      "constant": false,
      "inputs": [],
      "name": "rejectProposal",
      "outputs": [],
      "payable": false,
      "stateMutability": "nonpayable",
      "type": "function"
    },
    {
      "constant": false,
      "inputs": [
        {
          "name": "_dividendAmount",
          "type": "uint256"
        },
        {
          "name": "_token",
          "type": "address"
        },
        {
          "name": "_addresses",
          "type": "address[]"
        }
      ],
      "name": "distributeSpecial",
      "outputs": [
        {
          "name": "",
          "type": "bool"
        }
      ],
      "payable": false,
      "stateMutability": "nonpayable",
      "type": "function"
    }
  ],
  "bytecode": "0x608060405234801561001057600080fd5b50604051602080611f5383398101806040528101908080519060200190929190505050336000806101000a81548173ffffffffffffffffffffffffffffffffffffffff021916908373ffffffffffffffffffffffffffffffffffffffff16021790555080600b60006101000a81548173ffffffffffffffffffffffffffffffffffffffff021916908373ffffffffffffffffffffffffffffffffffffffff16021790555050611e8f806100c46000396000f30060806040526004361061011d576000357c0100000000000000000000000000000000000000000000000000000000900463ffffffff168063061c92081461012257806309eef43e1461014d57806329df65d1146101a85780632e8a17161461020e578063329d3346146102395780633723bc0e146102505780633856d185146102bc5780637e056b911461034f57806389732353146103665780638da5cb5b146103bd5780639be4cc8c146104145780639ef27b001461042b578063a5aa56ef14610456578063ab377daa146104fe578063b89a73cb1461056b578063d2bbc790146105c6578063e08cf07c146105f1578063f21f537d14610681578063f2fde38b146106ac578063fc0c546a146106ef578063feac729d14610746575b600080fd5b34801561012e57600080fd5b50610137610771565b6040518082815260200191505060405180910390f35b34801561015957600080fd5b5061018e600480360381019080803573ffffffffffffffffffffffffffffffffffffffff16906020019092919050505061077e565b604051808215151515815260200191505060405180910390f35b3480156101b457600080fd5b5061020c600480360381019080803590602001908201803590602001908080602002602001604051908101604052809392919081815260200183836020028082843782019150505050505091929192905050506107d7565b005b34801561021a57600080fd5b5061022361084c565b6040518082815260200191505060405180910390f35b34801561024557600080fd5b5061024e610859565b005b34801561025c57600080fd5b50610265610d3a565b6040518080602001828103825283818151815260200191508051906020019060200280838360005b838110156102a857808201518184015260208101905061028d565b505050509050019250505060405180910390f35b3480156102c857600080fd5b5061034d600480360381019080803590602001908201803590602001908080601f016020809104026020016040519081016040528093929190818152602001838380828437820191505050505050919291929080359060200190929190803573ffffffffffffffffffffffffffffffffffffffff169060200190929190505050610dc8565b005b34801561035b57600080fd5b50610364610fdf565b005b34801561037257600080fd5b5061037b6111d8565b604051808273ffffffffffffffffffffffffffffffffffffffff1673ffffffffffffffffffffffffffffffffffffffff16815260200191505060405180910390f35b3480156103c957600080fd5b506103d2611204565b604051808273ffffffffffffffffffffffffffffffffffffffff1673ffffffffffffffffffffffffffffffffffffffff16815260200191505060405180910390f35b34801561042057600080fd5b50610429611229565b005b34801561043757600080fd5b50610440611422565b6040518082815260200191505060405180910390f35b34801561046257600080fd5b506104e460048036038101908080359060200190929190803573ffffffffffffffffffffffffffffffffffffffff1690602001909291908035906020019082018035906020019080806020026020016040519081016040528093929190818152602001838360200280828437820191505050505050919291929050505061142f565b604051808215151515815260200191505060405180910390f35b34801561050a57600080fd5b50610529600480360381019080803590602001909291905050506114a0565b604051808273ffffffffffffffffffffffffffffffffffffffff1673ffffffffffffffffffffffffffffffffffffffff16815260200191505060405180910390f35b34801561057757600080fd5b506105ac600480360381019080803573ffffffffffffffffffffffffffffffffffffffff1690602001909291905050506114de565b604051808215151515815260200191505060405180910390f35b3480156105d257600080fd5b506105db611581565b6040518082815260200191505060405180910390f35b3480156105fd57600080fd5b5061060661158e565b6040518080602001828103825283818151815260200191508051906020019080838360005b8381101561064657808201518184015260208101905061062b565b50505050905090810190601f1680156106735780820380516001836020036101000a031916815260200191505b509250505060405180910390f35b34801561068d57600080fd5b50610696611633565b6040518082815260200191505060405180910390f35b3480156106b857600080fd5b506106ed600480360381019080803573ffffffffffffffffffffffffffffffffffffffff169060200190929190505050611640565b005b3480156106fb57600080fd5b50610704611795565b604051808273ffffffffffffffffffffffffffffffffffffffff1673ffffffffffffffffffffffffffffffffffffffff16815260200191505060405180910390f35b34801561075257600080fd5b5061075b6117bf565b6040518082815260200191505060405180910390f35b6000600260060154905090565b6000600260070160008373ffffffffffffffffffffffffffffffffffffffff1673ffffffffffffffffffffffffffffffffffffffff16815260200190815260200160002060009054906101000a900460ff169050919050565b6000809054906101000a900473ffffffffffffffffffffffffffffffffffffffff1673ffffffffffffffffffffffffffffffffffffffff163373ffffffffffffffffffffffffffffffffffffffff1614151561083257600080fd5b8060019080519060200190610848929190611ca9565b5050565b6000600260010154905090565b60008060008060009054906101000a900473ffffffffffffffffffffffffffffffffffffffff1673ffffffffffffffffffffffffffffffffffffffff163373ffffffffffffffffffffffffffffffffffffffff161415156108b957600080fd5b426002600401541115156108cc57600080fd5b8073ffffffffffffffffffffffffffffffffffffffff166370a08231306040518263ffffffff167c0100000000000000000000000000000000000000000000000000000000028152600401808273ffffffffffffffffffffffffffffffffffffffff1673ffffffffffffffffffffffffffffffffffffffff168152602001915050602060405180830381600087803b15801561096757600080fd5b505af115801561097b573d6000803e3d6000fd5b505050506040513d602081101561099157600080fd5b81019080805190602001909291905050509250600b60009054906101000a900473ffffffffffffffffffffffffffffffffffffffff1673ffffffffffffffffffffffffffffffffffffffff166318160ddd6040518163ffffffff167c0100000000000000000000000000000000000000000000000000000000028152600401602060405180830381600087803b158015610a2a57600080fd5b505af1158015610a3e573d6000803e3d6000fd5b505050506040513d6020811015610a5457600080fd5b81019080805190602001909291905050509150600282811515610a7357fe5b046002600501541115610ba8576002800160009054906101000a900473ffffffffffffffffffffffffffffffffffffffff169050610b3883826001805480602002602001604051908101604052809291908181526020018280548015610b2e57602002820191906000526020600020905b8160009054906101000a900473ffffffffffffffffffffffffffffffffffffffff1673ffffffffffffffffffffffffffffffffffffffff1681526020019060010190808311610ae4575b50505050506117c9565b15610ba3577fa27b68f190419f4f7243c6cac4321df8e895737918e69cd924167a613a84e776600a54836002600501546002600601546040518085815260200184815260200183815260200182815260200194505050505060405180910390a1426002600401819055505b610d35565b600b60009054906101000a900473ffffffffffffffffffffffffffffffffffffffff1673ffffffffffffffffffffffffffffffffffffffff1663a9059cbb6000809054906101000a900473ffffffffffffffffffffffffffffffffffffffff16856040518363ffffffff167c0100000000000000000000000000000000000000000000000000000000028152600401808373ffffffffffffffffffffffffffffffffffffffff1673ffffffffffffffffffffffffffffffffffffffff16815260200182815260200192505050602060405180830381600087803b158015610c8e57600080fd5b505af1158015610ca2573d6000803e3d6000fd5b505050506040513d6020811015610cb857600080fd5b810190808051906020019092919050505015610d34577f600d2d6cc90151ad8f438bbd2ea92b6dc142a84516f407919814a5ef5e2d1af2600a54836002600501546002600601546040518085815260200184815260200183815260200182815260200194505050505060405180910390a1426002600401819055505b5b505050565b60606001805480602002602001604051908101604052809291908181526020018280548015610dbe57602002820191906000526020600020905b8160009054906101000a900473ffffffffffffffffffffffffffffffffffffffff1673ffffffffffffffffffffffffffffffffffffffff1681526020019060010190808311610d74575b5050505050905090565b6000809054906101000a900473ffffffffffffffffffffffffffffffffffffffff1673ffffffffffffffffffffffffffffffffffffffff163373ffffffffffffffffffffffffffffffffffffffff16141515610e2357600080fd5b42600260040154101515610e3657600080fd5b6000600a541115610ea657600260008082016000610e549190611d33565b60018201600090556002820160006101000a81549073ffffffffffffffffffffffffffffffffffffffff0219169055600382016000905560048201600090556005820160009055600682016000905550505b60e0604051908101604052808481526020018381526020018273ffffffffffffffffffffffffffffffffffffffff168152602001428152602001600019815260200160008152602001600081525060026000820151816000019080519060200190610f12929190611d7b565b506020820151816001015560408201518160020160006101000a81548173ffffffffffffffffffffffffffffffffffffffff021916908373ffffffffffffffffffffffffffffffffffffffff160217905550606082015181600301556080820151816004015560a0820151816005015560c08201518160060155905050600a600081548092919060010191905055507f9a863892f20a6b9c6cec64d611b5864be6373191ce2cacc3b05a299bce3bf80e600a546040518082815260200191505060405180910390a1505050565b600042600260040154111515610ff457600080fd5b600260070160003373ffffffffffffffffffffffffffffffffffffffff1673ffffffffffffffffffffffffffffffffffffffff16815260200190815260200160002060009054906101000a900460ff1615151561105057600080fd5b600b60009054906101000a900473ffffffffffffffffffffffffffffffffffffffff1673ffffffffffffffffffffffffffffffffffffffff166370a08231336040518263ffffffff167c0100000000000000000000000000000000000000000000000000000000028152600401808273ffffffffffffffffffffffffffffffffffffffff1673ffffffffffffffffffffffffffffffffffffffff168152602001915050602060405180830381600087803b15801561110d57600080fd5b505af1158015611121573d6000803e3d6000fd5b505050506040513d602081101561113757600080fd5b8101908080519060200190929190505050905060008111151561115957600080fd5b61117181600260050154611c3f90919063ffffffff16565b6002600501819055506001600260070160003373ffffffffffffffffffffffffffffffffffffffff1673ffffffffffffffffffffffffffffffffffffffff16815260200190815260200160002060006101000a81548160ff02191690831515021790555050565b60006002800160009054906101000a900473ffffffffffffffffffffffffffffffffffffffff16905090565b6000809054906101000a900473ffffffffffffffffffffffffffffffffffffffff1681565b60004260026004015411151561123e57600080fd5b600260070160003373ffffffffffffffffffffffffffffffffffffffff1673ffffffffffffffffffffffffffffffffffffffff16815260200190815260200160002060009054906101000a900460ff1615151561129a57600080fd5b600b60009054906101000a900473ffffffffffffffffffffffffffffffffffffffff1673ffffffffffffffffffffffffffffffffffffffff166370a08231336040518263ffffffff167c0100000000000000000000000000000000000000000000000000000000028152600401808273ffffffffffffffffffffffffffffffffffffffff1673ffffffffffffffffffffffffffffffffffffffff168152602001915050602060405180830381600087803b15801561135757600080fd5b505af115801561136b573d6000803e3d6000fd5b505050506040513d602081101561138157600080fd5b810190808051906020019092919050505090506000811115156113a357600080fd5b6113bb81600260060154611c3f90919063ffffffff16565b6002600601819055506001600260070160003373ffffffffffffffffffffffffffffffffffffffff1673ffffffffffffffffffffffffffffffffffffffff16815260200190815260200160002060006101000a81548160ff02191690831515021790555050565b6000600260040154905090565b60008060009054906101000a900473ffffffffffffffffffffffffffffffffffffffff1673ffffffffffffffffffffffffffffffffffffffff163373ffffffffffffffffffffffffffffffffffffffff1614151561148c57600080fd5b6114978484846117c9565b90509392505050565b6001818154811015156114af57fe5b906000526020600020016000915054906101000a900473ffffffffffffffffffffffffffffffffffffffff1681565b600080600090505b600180549050811015611576578273ffffffffffffffffffffffffffffffffffffffff1660018281548110151561151957fe5b9060005260206000200160009054906101000a900473ffffffffffffffffffffffffffffffffffffffff1673ffffffffffffffffffffffffffffffffffffffff161415611569576001915061157b565b80806001019150506114e6565b600091505b50919050565b6000600260050154905090565b606060026000018054600181600116156101000203166002900480601f0160208091040260200160405190810160405280929190818152602001828054600181600116156101000203166002900480156116295780601f106115fe57610100808354040283529160200191611629565b820191906000526020600020905b81548152906001019060200180831161160c57829003601f168201915b5050505050905090565b6000600260030154905090565b6000809054906101000a900473ffffffffffffffffffffffffffffffffffffffff1673ffffffffffffffffffffffffffffffffffffffff163373ffffffffffffffffffffffffffffffffffffffff1614151561169b57600080fd5b600073ffffffffffffffffffffffffffffffffffffffff168173ffffffffffffffffffffffffffffffffffffffff16141515156116d757600080fd5b8073ffffffffffffffffffffffffffffffffffffffff166000809054906101000a900473ffffffffffffffffffffffffffffffffffffffff1673ffffffffffffffffffffffffffffffffffffffff167f8be0079c531659141344cd1fd0a4f28419497f9722a3daafe3b4186f6b6457e060405160405180910390a3806000806101000a81548173ffffffffffffffffffffffffffffffffffffffff021916908373ffffffffffffffffffffffffffffffffffffffff16021790555050565b6000600b60009054906101000a900473ffffffffffffffffffffffffffffffffffffffff16905090565b6000600a54905090565b6000806000808573ffffffffffffffffffffffffffffffffffffffff166370a08231306040518263ffffffff167c0100000000000000000000000000000000000000000000000000000000028152600401808273ffffffffffffffffffffffffffffffffffffffff1673ffffffffffffffffffffffffffffffffffffffff168152602001915050602060405180830381600087803b15801561186a57600080fd5b505af115801561187e573d6000803e3d6000fd5b505050506040513d602081101561189457600080fd5b810190808051906020019092919050505092508683101515156118b657600080fd5b600091505b8451821015611bc657611ab7600b60009054906101000a900473ffffffffffffffffffffffffffffffffffffffff1673ffffffffffffffffffffffffffffffffffffffff166318160ddd6040518163ffffffff167c0100000000000000000000000000000000000000000000000000000000028152600401602060405180830381600087803b15801561194d57600080fd5b505af1158015611961573d6000803e3d6000fd5b505050506040513d602081101561197757600080fd5b8101908080519060200190929190505050611aa9600b60009054906101000a900473ffffffffffffffffffffffffffffffffffffffff1673ffffffffffffffffffffffffffffffffffffffff166370a0823189878151811015156119d757fe5b906020019060200201516040518263ffffffff167c0100000000000000000000000000000000000000000000000000000000028152600401808273ffffffffffffffffffffffffffffffffffffffff1673ffffffffffffffffffffffffffffffffffffffff168152602001915050602060405180830381600087803b158015611a5f57600080fd5b505af1158015611a73573d6000803e3d6000fd5b505050506040513d6020811015611a8957600080fd5b81019080805190602001909291905050508a611c5b90919063ffffffff16565b611c9390919063ffffffff16565b90506000811115611bb9578573ffffffffffffffffffffffffffffffffffffffff1663a9059cbb8684815181101515611aec57fe5b90602001906020020151836040518363ffffffff167c0100000000000000000000000000000000000000000000000000000000028152600401808373ffffffffffffffffffffffffffffffffffffffff1673ffffffffffffffffffffffffffffffffffffffff16815260200182815260200192505050602060405180830381600087803b158015611b7c57600080fd5b505af1158015611b90573d6000803e3d6000fd5b505050506040513d6020811015611ba657600080fd5b8101908080519060200190929190505050505b81806001019250506118bb565b7f33ad5d6b2a46b5457e0d36286a2686a0390b0821dedbbdf8dcdcda64f4782c688688604051808373ffffffffffffffffffffffffffffffffffffffff1673ffffffffffffffffffffffffffffffffffffffff1681526020018281526020019250505060405180910390a1600193505050509392505050565b60008183019050828110151515611c5257fe5b80905092915050565b600080831415611c6e5760009050611c8d565b8183029050818382811515611c7f57fe5b04141515611c8957fe5b8090505b92915050565b60008183811515611ca057fe5b04905092915050565b828054828255906000526020600020908101928215611d22579160200282015b82811115611d215782518260006101000a81548173ffffffffffffffffffffffffffffffffffffffff021916908373ffffffffffffffffffffffffffffffffffffffff16021790555091602001919060010190611cc9565b5b509050611d2f9190611dfb565b5090565b50805460018160011615610100020316600290046000825580601f10611d595750611d78565b601f016020900490600052602060002090810190611d779190611e3e565b5b50565b828054600181600116156101000203166002900490600052602060002090601f016020900481019282601f10611dbc57805160ff1916838001178555611dea565b82800160010185558215611dea579182015b82811115611de9578251825591602001919060010190611dce565b5b509050611df79190611e3e565b5090565b611e3b91905b80821115611e3757600081816101000a81549073ffffffffffffffffffffffffffffffffffffffff021916905550600101611e01565b5090565b90565b611e6091905b80821115611e5c576000816000905550600101611e44565b5090565b905600a165627a7a72305820b0df92ed1cc3c8b8fcf026586f5ce8fc7b4b36419dfd3090da3a7d6d425b27f40029",
  "source": "pragma solidity ^0.4.23;\n\nimport '../zeppelin/token/ERC20/ERC20.sol';\nimport '../zeppelin/ownership/Ownable.sol';\nimport '../zeppelin/math/SafeMath.sol';\nimport './Shareholder.sol';\n\n/**\n * @title Demo Share Voting token\n *\n * @dev Voting mechanism to distribute shares\n **/\n\ncontract DemoShare is Shareholder {\n  using SafeMath for uint256;\n  uint256 constant UINT256_MAX = ~uint256(0);\n\n  struct Proposal {\n    string url;\n    uint256 hash;\n    ERC20 dividendToken;\n    uint256 startedAt;\n    uint256 closedAt;\n    uint256 approvals;\n    uint256 rejections;\n    mapping(address => bool) participants;\n  }\n  Proposal internal currentProposal;\n  uint256 internal proposalCount;\n\n  ERC20 public token;\n\n  /**\n   * @dev constructor\n   **/\n  constructor(ERC20 _token) public {\n    token = _token;\n  }\n\n  /**\n   * @dev token\n   */\n  function token() public view returns (ERC20) {\n    return token;\n  }\n\n  /**\n   * @dev current proposal id\n   */\n  function currentProposalId() public view returns (uint256) {\n    return proposalCount;\n  }\n\n  /**\n   * @dev current proposal url\n   */\n  function currentUrl() public view returns (string) {\n    return currentProposal.url;\n  }\n\n  /**\n   * @dev current proposal hash\n   */\n  function currentHash() public view returns (uint256) {\n    return currentProposal.hash;\n  }\n\n  /**\n   * @dev current proposal dividend token\n   */\n  function currentDividendToken() public view returns (ERC20) {\n    return currentProposal.dividendToken;\n  }\n\n  /**\n   * @dev current proposal started at\n  */\n  function startedAt() public view returns (uint256) {\n    return currentProposal.startedAt;\n  }\n\n  /**\n   * @dev current proposal closed at\n   */\n  function closedAt() public view returns (uint256) {\n    return currentProposal.closedAt;\n  }\n\n  /**\n   * @dev current proposal approvals\n   */\n  function voteApprovals() public view returns (uint256) {\n    return currentProposal.approvals;\n  }\n\n  /**\n   * @dev current proposal rejections\n   */\n  function voteRejections() public view returns (uint256) {\n    return currentProposal.rejections;\n  }\n\n  /**\n   * @dev current proposal hasVoted\n   */\n  function hasVoted(address _address) public view returns (bool) {\n    return currentProposal.participants[_address];\n  }\n\n  /**\n   * @dev propose a new vote. Owner only\n   */\n  function proposeVote(string _url, uint256 _hash, ERC20 _dividendToken) public onlyOwner {\n    require(currentProposal.closedAt < now);\n\n    if(proposalCount > 0) {\n      delete currentProposal;\n    }\n    currentProposal = Proposal(_url, _hash, _dividendToken, now, UINT256_MAX, 0, 0);\n    proposalCount++;\n    emit NewProposal(proposalCount);\n  }\n\n  /**\n   * @dev close the current vote. Owner only\n   */\n  function closeVote() public onlyOwner {\n    require(currentProposal.closedAt > now);\n\n    uint256 balance = dividendToken.balanceOf(this);\n    uint256 totalSupply = token.totalSupply();\n    \n    if(currentProposal.approvals > totalSupply / 2) {\n      ERC20 dividendToken = currentProposal.dividendToken;\n      if(distributeInternal(balance, dividendToken, shareholders)) {\n        emit Approved(proposalCount, totalSupply, currentProposal.approvals, currentProposal.rejections);\n        currentProposal.closedAt = now;\n      }\n    } else {\n      if(token.transfer(owner, balance)) {\n        emit Rejected(proposalCount, totalSupply, currentProposal.approvals, currentProposal.rejections);\n        currentProposal.closedAt = now;\n      }\n    }\n  }\n\n  /**\n   * @dev approve the current vote\n   */\n  function approveProposal() public {\n    require(currentProposal.closedAt > now);\n    require(!currentProposal.participants[msg.sender]);\n    uint256 balance = token.balanceOf(msg.sender);\n    require(balance > 0);\n\n    currentProposal.approvals = currentProposal.approvals.add(balance);\n    currentProposal.participants[msg.sender] = true;\n  }\n\n  /**\n   * @dev reject the current vote\n   */\n  function rejectProposal() public {\n    require(currentProposal.closedAt > now);\n    require(!currentProposal.participants[msg.sender]);\n    uint256 balance = token.balanceOf(msg.sender);\n    require(balance > 0);\n\n    currentProposal.rejections = currentProposal.rejections.add(balance);\n    currentProposal.participants[msg.sender] = true;\n  }\n\n  /**\n   * @dev Distribute special dividend\n   */\n  function distributeSpecial(uint256 _dividendAmount, ERC20 _token, address[] _addresses)\n  \tpublic onlyOwner returns (bool) {\n    return distributeInternal(_dividendAmount, _token, _addresses);\n  }\n\n  /**\n   * @dev distribute internal\n   */\n  function distributeInternal(uint256 _dividendAmount, ERC20 _token, address[] _addresses)\n  \tinternal returns (bool) {\n    uint256 balance = _token.balanceOf(this);\n    require(balance >= _dividendAmount);\n\n    for(uint256 i=0; i< _addresses.length; i++) {\n      uint256 value = _dividendAmount.mul(token.balanceOf(_addresses[i])).div(token.totalSupply());\n      if(value > 0) {\n\t_token.transfer(_addresses[i], value);\n      }\n    }\n\n    emit Distribution(address(_token), _dividendAmount);\n    return true;\n  }\n\n  event NewProposal(uint256 proposalId);\n  event Approved(uint256 proposalId, uint256 total, uint256 approvals, uint256 rejections);\n  event Rejected(uint256 proposalId, uint256 total, uint256 approvals, uint256 rejections);\n  event Distribution(address _token, uint256 _dividendAmount);\n}\n",
  "sourcePath": "/home/node/project/contracts/demo/DemoShare.sol",
  "compiler": {
    "name": "solc",
    "version": "0.4.23+commit.124ca40d.Emscripten.clang"
  },
  "schemaVersion": "2.0.0",
  "updatedAt": "2018-05-02T20:55:53.316Z"
}