{
  "contractName": "DemoShare",
  "abi": [
    {
      "constant": false,
      "inputs": [
        {
          "name": "_shareholders",
          "type": "address[]"
        }
      ],
      "name": "updateShareholders",
      "outputs": [],
      "payable": false,
      "stateMutability": "nonpayable",
      "type": "function"
    },
    {
      "constant": true,
      "inputs": [],
      "name": "shareholders",
      "outputs": [
        {
          "name": "",
          "type": "address[]"
        }
      ],
      "payable": false,
      "stateMutability": "view",
      "type": "function"
    },
    {
      "constant": true,
      "inputs": [],
      "name": "owner",
      "outputs": [
        {
          "name": "",
          "type": "address"
        }
      ],
      "payable": false,
      "stateMutability": "view",
      "type": "function"
    },
    {
      "constant": true,
      "inputs": [
        {
          "name": "",
          "type": "uint256"
        }
      ],
      "name": "shareholders",
      "outputs": [
        {
          "name": "",
          "type": "address"
        }
      ],
      "payable": false,
      "stateMutability": "view",
      "type": "function"
    },
    {
      "constant": true,
      "inputs": [
        {
          "name": "_address",
          "type": "address"
        }
      ],
      "name": "isShareholder",
      "outputs": [
        {
          "name": "",
          "type": "bool"
        }
      ],
      "payable": false,
      "stateMutability": "view",
      "type": "function"
    },
    {
      "constant": false,
      "inputs": [
        {
          "name": "newOwner",
          "type": "address"
        }
      ],
      "name": "transferOwnership",
      "outputs": [],
      "payable": false,
      "stateMutability": "nonpayable",
      "type": "function"
    },
    {
      "inputs": [
        {
          "name": "_token",
          "type": "address"
        }
      ],
      "payable": false,
      "stateMutability": "nonpayable",
      "type": "constructor"
    },
    {
      "anonymous": false,
      "inputs": [
        {
          "indexed": false,
          "name": "proposalId",
          "type": "uint256"
        }
      ],
      "name": "NewProposal",
      "type": "event"
    },
    {
      "anonymous": false,
      "inputs": [
        {
          "indexed": false,
          "name": "proposalId",
          "type": "uint256"
        },
        {
          "indexed": false,
          "name": "total",
          "type": "uint256"
        },
        {
          "indexed": false,
          "name": "approvals",
          "type": "uint256"
        },
        {
          "indexed": false,
          "name": "rejections",
          "type": "uint256"
        }
      ],
      "name": "Approved",
      "type": "event"
    },
    {
      "anonymous": false,
      "inputs": [
        {
          "indexed": false,
          "name": "proposalId",
          "type": "uint256"
        },
        {
          "indexed": false,
          "name": "total",
          "type": "uint256"
        },
        {
          "indexed": false,
          "name": "approvals",
          "type": "uint256"
        },
        {
          "indexed": false,
          "name": "rejections",
          "type": "uint256"
        }
      ],
      "name": "Rejected",
      "type": "event"
    },
    {
      "anonymous": false,
      "inputs": [
        {
          "indexed": false,
          "name": "proposalId",
          "type": "uint256"
        },
        {
          "indexed": false,
          "name": "token",
          "type": "address"
        },
        {
          "indexed": false,
          "name": "dividendAmount",
          "type": "uint256"
        }
      ],
      "name": "Distribution",
      "type": "event"
    },
    {
      "anonymous": false,
      "inputs": [
        {
          "indexed": true,
          "name": "previousOwner",
          "type": "address"
        },
        {
          "indexed": true,
          "name": "newOwner",
          "type": "address"
        }
      ],
      "name": "OwnershipTransferred",
      "type": "event"
    },
    {
      "constant": true,
      "inputs": [],
      "name": "token",
      "outputs": [
        {
          "name": "",
          "type": "address"
        }
      ],
      "payable": false,
      "stateMutability": "view",
      "type": "function"
    },
    {
      "constant": false,
      "inputs": [
        {
          "name": "_token",
          "type": "address"
        }
      ],
      "name": "updateToken",
      "outputs": [],
      "payable": false,
      "stateMutability": "nonpayable",
      "type": "function"
    },
    {
      "constant": true,
      "inputs": [],
      "name": "currentProposalId",
      "outputs": [
        {
          "name": "",
          "type": "uint256"
        }
      ],
      "payable": false,
      "stateMutability": "view",
      "type": "function"
    },
    {
      "constant": true,
      "inputs": [],
      "name": "currentUrl",
      "outputs": [
        {
          "name": "",
          "type": "string"
        }
      ],
      "payable": false,
      "stateMutability": "view",
      "type": "function"
    },
    {
      "constant": true,
      "inputs": [],
      "name": "currentHash",
      "outputs": [
        {
          "name": "",
          "type": "uint256"
        }
      ],
      "payable": false,
      "stateMutability": "view",
      "type": "function"
    },
    {
      "constant": true,
      "inputs": [],
      "name": "currentDividendToken",
      "outputs": [
        {
          "name": "",
          "type": "address"
        }
      ],
      "payable": false,
      "stateMutability": "view",
      "type": "function"
    },
    {
      "constant": true,
      "inputs": [],
      "name": "startedAt",
      "outputs": [
        {
          "name": "",
          "type": "uint256"
        }
      ],
      "payable": false,
      "stateMutability": "view",
      "type": "function"
    },
    {
      "constant": true,
      "inputs": [],
      "name": "closedAt",
      "outputs": [
        {
          "name": "",
          "type": "uint256"
        }
      ],
      "payable": false,
      "stateMutability": "view",
      "type": "function"
    },
    {
      "constant": true,
      "inputs": [],
      "name": "voteApprovals",
      "outputs": [
        {
          "name": "",
          "type": "uint256"
        }
      ],
      "payable": false,
      "stateMutability": "view",
      "type": "function"
    },
    {
      "constant": true,
      "inputs": [],
      "name": "voteRejections",
      "outputs": [
        {
          "name": "",
          "type": "uint256"
        }
      ],
      "payable": false,
      "stateMutability": "view",
      "type": "function"
    },
    {
      "constant": true,
      "inputs": [
        {
          "name": "_address",
          "type": "address"
        }
      ],
      "name": "hasVoted",
      "outputs": [
        {
          "name": "",
          "type": "bool"
        }
      ],
      "payable": false,
      "stateMutability": "view",
      "type": "function"
    },
    {
      "constant": false,
      "inputs": [
        {
          "name": "_url",
          "type": "string"
        },
        {
          "name": "_hash",
          "type": "uint256"
        },
        {
          "name": "_dividendToken",
          "type": "address"
        }
      ],
      "name": "proposeVote",
      "outputs": [],
      "payable": false,
      "stateMutability": "nonpayable",
      "type": "function"
    },
    {
      "constant": false,
      "inputs": [],
      "name": "closeVote",
      "outputs": [],
      "payable": false,
      "stateMutability": "nonpayable",
      "type": "function"
    },
    {
      "constant": false,
      "inputs": [],
      "name": "closeVoteApproval",
      "outputs": [],
      "payable": false,
      "stateMutability": "nonpayable",
      "type": "function"
    },
    {
      "constant": false,
      "inputs": [],
      "name": "closeVoteRejection",
      "outputs": [],
      "payable": false,
      "stateMutability": "nonpayable",
      "type": "function"
    },
    {
      "constant": false,
      "inputs": [],
      "name": "forceCloseVoteNoActions",
      "outputs": [],
      "payable": false,
      "stateMutability": "nonpayable",
      "type": "function"
    },
    {
      "constant": false,
      "inputs": [],
      "name": "approveProposal",
      "outputs": [],
      "payable": false,
      "stateMutability": "nonpayable",
      "type": "function"
    },
    {
      "constant": false,
      "inputs": [],
      "name": "rejectProposal",
      "outputs": [],
      "payable": false,
      "stateMutability": "nonpayable",
      "type": "function"
    },
    {
      "constant": false,
      "inputs": [],
      "name": "distribute",
      "outputs": [
        {
          "name": "",
          "type": "bool"
        }
      ],
      "payable": false,
      "stateMutability": "nonpayable",
      "type": "function"
    },
    {
      "constant": false,
      "inputs": [
        {
          "name": "_dividendAmount",
          "type": "uint256"
        },
        {
          "name": "_token",
          "type": "address"
        },
        {
          "name": "_addresses",
          "type": "address[]"
        }
      ],
      "name": "distributeSpecial",
      "outputs": [
        {
          "name": "",
          "type": "bool"
        }
      ],
      "payable": false,
      "stateMutability": "nonpayable",
      "type": "function"
    }
  ],
  "bytecode": "0x608060405234801561001057600080fd5b506040516020806124af83398101806040528101908080519060200190929190505050336000806101000a81548173ffffffffffffffffffffffffffffffffffffffff021916908373ffffffffffffffffffffffffffffffffffffffff16021790555080600b60006101000a81548173ffffffffffffffffffffffffffffffffffffffff021916908373ffffffffffffffffffffffffffffffffffffffff160217905550506123eb806100c46000396000f300608060405260043610610154576000357c0100000000000000000000000000000000000000000000000000000000900463ffffffff168063061c92081461015957806309eef43e1461018457806329df65d1146101df5780632e8a171614610245578063329d3346146102705780633723bc0e146102875780633856d185146102f35780634238cf0b146103865780636e39d1511461039d5780637ad3def2146103b45780637e056b91146103f7578063897323531461040e5780638da5cb5b1461046557806392535a8e146104bc5780639be4cc8c146104d35780639ef27b00146104ea578063a5aa56ef14610515578063ab377daa146105bd578063b89a73cb1461062a578063d2bbc79014610685578063e08cf07c146106b0578063e4fc6b6d14610740578063f21f537d1461076f578063f2fde38b1461079a578063fc0c546a146107dd578063feac729d14610834575b600080fd5b34801561016557600080fd5b5061016e61085f565b6040518082815260200191505060405180910390f35b34801561019057600080fd5b506101c5600480360381019080803573ffffffffffffffffffffffffffffffffffffffff16906020019092919050505061086c565b604051808215151515815260200191505060405180910390f35b3480156101eb57600080fd5b50610243600480360381019080803590602001908201803590602001908080602002602001604051908101604052809392919081815260200183836020028082843782019150505050505091929192905050506108d5565b005b34801561025157600080fd5b5061025a61094a565b6040518082815260200191505060405180910390f35b34801561027c57600080fd5b50610285610957565b005b34801561029357600080fd5b5061029c610b6d565b6040518080602001828103825283818151815260200191508051906020019060200280838360005b838110156102df5780820151818401526020810190506102c4565b505050509050019250505060405180910390f35b3480156102ff57600080fd5b50610384600480360381019080803590602001908201803590602001908080601f016020809104026020016040519081016040528093929190818152602001838380828437820191505050505050919291929080359060200190929190803573ffffffffffffffffffffffffffffffffffffffff169060200190929190505050610bfb565b005b34801561039257600080fd5b5061039b610e00565b005b3480156103a957600080fd5b506103b2610e8c565b005b3480156103c057600080fd5b506103f5600480360381019080803573ffffffffffffffffffffffffffffffffffffffff169060200190929190505050611027565b005b34801561040357600080fd5b5061040c61106b565b005b34801561041a57600080fd5b506104236112f5565b604051808273ffffffffffffffffffffffffffffffffffffffff1673ffffffffffffffffffffffffffffffffffffffff16815260200191505060405180910390f35b34801561047157600080fd5b5061047a611321565b604051808273ffffffffffffffffffffffffffffffffffffffff1673ffffffffffffffffffffffffffffffffffffffff16815260200191505060405180910390f35b3480156104c857600080fd5b506104d1611346565b005b3480156104df57600080fd5b506104e86114e1565b005b3480156104f657600080fd5b506104ff611758565b6040518082815260200191505060405180910390f35b34801561052157600080fd5b506105a360048036038101908080359060200190929190803573ffffffffffffffffffffffffffffffffffffffff16906020019092919080359060200190820180359060200190808060200260200160405190810160405280939291908181526020018383602002808284378201915050505050509192919290505050611765565b604051808215151515815260200191505060405180910390f35b3480156105c957600080fd5b506105e8600480360381019080803590602001909291905050506117d6565b604051808273ffffffffffffffffffffffffffffffffffffffff1673ffffffffffffffffffffffffffffffffffffffff16815260200191505060405180910390f35b34801561063657600080fd5b5061066b600480360381019080803573ffffffffffffffffffffffffffffffffffffffff169060200190929190505050611814565b604051808215151515815260200191505060405180910390f35b34801561069157600080fd5b5061069a6118b7565b6040518082815260200191505060405180910390f35b3480156106bc57600080fd5b506106c56118c4565b6040518080602001828103825283818151815260200191508051906020019080838360005b838110156107055780820151818401526020810190506106ea565b50505050905090810190601f1680156107325780820380516001836020036101000a031916815260200191505b509250505060405180910390f35b34801561074c57600080fd5b50610755611969565b604051808215151515815260200191505060405180910390f35b34801561077b57600080fd5b50610784611b85565b6040518082815260200191505060405180910390f35b3480156107a657600080fd5b506107db600480360381019080803573ffffffffffffffffffffffffffffffffffffffff169060200190929190505050611b92565b005b3480156107e957600080fd5b506107f2611ce7565b604051808273ffffffffffffffffffffffffffffffffffffffff1673ffffffffffffffffffffffffffffffffffffffff16815260200191505060405180910390f35b34801561084057600080fd5b50610849611d11565b6040518082815260200191505060405180910390f35b6000600260060154905090565b600060096000600a54815260200190815260200160002060008373ffffffffffffffffffffffffffffffffffffffff1673ffffffffffffffffffffffffffffffffffffffff16815260200190815260200160002060009054906101000a900460ff169050919050565b6000809054906101000a900473ffffffffffffffffffffffffffffffffffffffff1673ffffffffffffffffffffffffffffffffffffffff163373ffffffffffffffffffffffffffffffffffffffff1614151561093057600080fd5b8060019080519060200190610946929190612205565b5050565b6000600260010154905090565b60008060009054906101000a900473ffffffffffffffffffffffffffffffffffffffff1673ffffffffffffffffffffffffffffffffffffffff163373ffffffffffffffffffffffffffffffffffffffff161415156109b457600080fd5b426002600401541115156109c757600080fd5b600b60009054906101000a900473ffffffffffffffffffffffffffffffffffffffff1673ffffffffffffffffffffffffffffffffffffffff166318160ddd6040518163ffffffff167c0100000000000000000000000000000000000000000000000000000000028152600401602060405180830381600087803b158015610a4d57600080fd5b505af1158015610a61573d6000803e3d6000fd5b505050506040513d6020811015610a7757600080fd5b81019080805190602001909291905050509050806002600501546002021115610b04577fa27b68f190419f4f7243c6cac4321df8e895737918e69cd924167a613a84e776600a54826002600501546002600601546040518085815260200184815260200183815260200182815260200194505050505060405180910390a142600260040181905550610b6a565b7f600d2d6cc90151ad8f438bbd2ea92b6dc142a84516f407919814a5ef5e2d1af2600a54826002600501546002600601546040518085815260200184815260200183815260200182815260200194505050505060405180910390a1426002600401819055505b50565b60606001805480602002602001604051908101604052809291908181526020018280548015610bf157602002820191906000526020600020905b8160009054906101000a900473ffffffffffffffffffffffffffffffffffffffff1673ffffffffffffffffffffffffffffffffffffffff1681526020019060010190808311610ba7575b5050505050905090565b6000809054906101000a900473ffffffffffffffffffffffffffffffffffffffff1673ffffffffffffffffffffffffffffffffffffffff163373ffffffffffffffffffffffffffffffffffffffff16141515610c5657600080fd5b42600260040154101515610c6957600080fd5b6000600a541115610cd957600260008082016000610c87919061228f565b60018201600090556002820160006101000a81549073ffffffffffffffffffffffffffffffffffffffff0219169055600382016000905560048201600090556005820160009055600682016000905550505b60e0604051908101604052808481526020018381526020018273ffffffffffffffffffffffffffffffffffffffff168152602001428152602001600019815260200160008152602001600081525060026000820151816000019080519060200190610d459291906122d7565b506020820151816001015560408201518160020160006101000a81548173ffffffffffffffffffffffffffffffffffffffff021916908373ffffffffffffffffffffffffffffffffffffffff160217905550606082015181600301556080820151816004015560a0820151816005015560c082015181600601559050507f9a863892f20a6b9c6cec64d611b5864be6373191ce2cacc3b05a299bce3bf80e600a546040518082815260200191505060405180910390a1505050565b6000809054906101000a900473ffffffffffffffffffffffffffffffffffffffff1673ffffffffffffffffffffffffffffffffffffffff163373ffffffffffffffffffffffffffffffffffffffff16141515610e5b57600080fd5b42600260040154111515610e6e57600080fd5b42600260040181905550600a60008154809291906001019190505550565b60008060009054906101000a900473ffffffffffffffffffffffffffffffffffffffff1673ffffffffffffffffffffffffffffffffffffffff163373ffffffffffffffffffffffffffffffffffffffff16141515610ee957600080fd5b42600260040154111515610efc57600080fd5b600b60009054906101000a900473ffffffffffffffffffffffffffffffffffffffff1673ffffffffffffffffffffffffffffffffffffffff166318160ddd6040518163ffffffff167c0100000000000000000000000000000000000000000000000000000000028152600401602060405180830381600087803b158015610f8257600080fd5b505af1158015610f96573d6000803e3d6000fd5b505050506040513d6020811015610fac57600080fd5b810190808051906020019092919050505090507f600d2d6cc90151ad8f438bbd2ea92b6dc142a84516f407919814a5ef5e2d1af2600a54826002600501546002600601546040518085815260200184815260200183815260200182815260200194505050505060405180910390a14260026004018190555050565b80600b60006101000a81548173ffffffffffffffffffffffffffffffffffffffff021916908373ffffffffffffffffffffffffffffffffffffffff16021790555050565b60004260026004015411151561108057600080fd5b60096000600a54815260200190815260200160002060003373ffffffffffffffffffffffffffffffffffffffff1673ffffffffffffffffffffffffffffffffffffffff16815260200190815260200160002060009054906101000a900460ff161515156110ec57600080fd5b600b60009054906101000a900473ffffffffffffffffffffffffffffffffffffffff1673ffffffffffffffffffffffffffffffffffffffff166370a08231336040518263ffffffff167c0100000000000000000000000000000000000000000000000000000000028152600401808273ffffffffffffffffffffffffffffffffffffffff1673ffffffffffffffffffffffffffffffffffffffff168152602001915050602060405180830381600087803b1580156111a957600080fd5b505af11580156111bd573d6000803e3d6000fd5b505050506040513d60208110156111d357600080fd5b810190808051906020019092919050505090506000811115156111f557600080fd5b6000600a54111561126657600960006001600a5403815260200190815260200160002060003373ffffffffffffffffffffffffffffffffffffffff1673ffffffffffffffffffffffffffffffffffffffff16815260200190815260200160002060006101000a81549060ff02191690555b61127e81600260050154611d1b90919063ffffffff16565b600260050181905550600160096000600a54815260200190815260200160002060003373ffffffffffffffffffffffffffffffffffffffff1673ffffffffffffffffffffffffffffffffffffffff16815260200190815260200160002060006101000a81548160ff02191690831515021790555050565b60006002800160009054906101000a900473ffffffffffffffffffffffffffffffffffffffff16905090565b6000809054906101000a900473ffffffffffffffffffffffffffffffffffffffff1681565b60008060009054906101000a900473ffffffffffffffffffffffffffffffffffffffff1673ffffffffffffffffffffffffffffffffffffffff163373ffffffffffffffffffffffffffffffffffffffff161415156113a357600080fd5b426002600401541115156113b657600080fd5b600b60009054906101000a900473ffffffffffffffffffffffffffffffffffffffff1673ffffffffffffffffffffffffffffffffffffffff166318160ddd6040518163ffffffff167c0100000000000000000000000000000000000000000000000000000000028152600401602060405180830381600087803b15801561143c57600080fd5b505af1158015611450573d6000803e3d6000fd5b505050506040513d602081101561146657600080fd5b810190808051906020019092919050505090507fa27b68f190419f4f7243c6cac4321df8e895737918e69cd924167a613a84e776600a54826002600501546002600601546040518085815260200184815260200183815260200182815260200194505050505060405180910390a14260026004018190555050565b600060096000600a54815260200190815260200160002060003373ffffffffffffffffffffffffffffffffffffffff1673ffffffffffffffffffffffffffffffffffffffff16815260200190815260200160002060009054906101000a900460ff1615151561154f57600080fd5b600b60009054906101000a900473ffffffffffffffffffffffffffffffffffffffff1673ffffffffffffffffffffffffffffffffffffffff166370a08231336040518263ffffffff167c0100000000000000000000000000000000000000000000000000000000028152600401808273ffffffffffffffffffffffffffffffffffffffff1673ffffffffffffffffffffffffffffffffffffffff168152602001915050602060405180830381600087803b15801561160c57600080fd5b505af1158015611620573d6000803e3d6000fd5b505050506040513d602081101561163657600080fd5b8101908080519060200190929190505050905060008111151561165857600080fd5b6000600a5411156116c957600960006001600a5403815260200190815260200160002060003373ffffffffffffffffffffffffffffffffffffffff1673ffffffffffffffffffffffffffffffffffffffff16815260200190815260200160002060006101000a81549060ff02191690555b6116e181600260060154611d1b90919063ffffffff16565b600260060181905550600160096000600a54815260200190815260200160002060003373ffffffffffffffffffffffffffffffffffffffff1673ffffffffffffffffffffffffffffffffffffffff16815260200190815260200160002060006101000a81548160ff02191690831515021790555050565b6000600260040154905090565b60008060009054906101000a900473ffffffffffffffffffffffffffffffffffffffff1673ffffffffffffffffffffffffffffffffffffffff163373ffffffffffffffffffffffffffffffffffffffff161415156117c257600080fd5b6117cd848484611d37565b90509392505050565b6001818154811015156117e557fe5b906000526020600020016000915054906101000a900473ffffffffffffffffffffffffffffffffffffffff1681565b600080600090505b6001805490508110156118ac578273ffffffffffffffffffffffffffffffffffffffff1660018281548110151561184f57fe5b9060005260206000200160009054906101000a900473ffffffffffffffffffffffffffffffffffffffff1673ffffffffffffffffffffffffffffffffffffffff16141561189f57600191506118b1565b808060010191505061181c565b600091505b50919050565b6000600260050154905090565b606060026000018054600181600116156101000203166002900480601f01602080910402602001604051908101604052809291908181526020018280546001816001161561010002031660029004801561195f5780601f106119345761010080835404028352916020019161195f565b820191906000526020600020905b81548152906001019060200180831161194257829003601f168201915b5050505050905090565b60008060008060009054906101000a900473ffffffffffffffffffffffffffffffffffffffff1673ffffffffffffffffffffffffffffffffffffffff163373ffffffffffffffffffffffffffffffffffffffff161415156119c957600080fd5b426002600401541015156119dc57600080fd5b6002800160009054906101000a900473ffffffffffffffffffffffffffffffffffffffff1691508173ffffffffffffffffffffffffffffffffffffffff166370a08231306040518263ffffffff167c0100000000000000000000000000000000000000000000000000000000028152600401808273ffffffffffffffffffffffffffffffffffffffff1673ffffffffffffffffffffffffffffffffffffffff168152602001915050602060405180830381600087803b158015611a9e57600080fd5b505af1158015611ab2573d6000803e3d6000fd5b505050506040513d6020811015611ac857600080fd5b81019080805190602001909291905050509050600a60008154809291906001019190505550611b7e81836001805480602002602001604051908101604052809291908181526020018280548015611b7457602002820191906000526020600020905b8160009054906101000a900473ffffffffffffffffffffffffffffffffffffffff1673ffffffffffffffffffffffffffffffffffffffff1681526020019060010190808311611b2a575b5050505050611d37565b9250505090565b6000600260030154905090565b6000809054906101000a900473ffffffffffffffffffffffffffffffffffffffff1673ffffffffffffffffffffffffffffffffffffffff163373ffffffffffffffffffffffffffffffffffffffff16141515611bed57600080fd5b600073ffffffffffffffffffffffffffffffffffffffff168173ffffffffffffffffffffffffffffffffffffffff1614151515611c2957600080fd5b8073ffffffffffffffffffffffffffffffffffffffff166000809054906101000a900473ffffffffffffffffffffffffffffffffffffffff1673ffffffffffffffffffffffffffffffffffffffff167f8be0079c531659141344cd1fd0a4f28419497f9722a3daafe3b4186f6b6457e060405160405180910390a3806000806101000a81548173ffffffffffffffffffffffffffffffffffffffff021916908373ffffffffffffffffffffffffffffffffffffffff16021790555050565b6000600b60009054906101000a900473ffffffffffffffffffffffffffffffffffffffff16905090565b6000600a54905090565b60008183019050828110151515611d2e57fe5b80905092915050565b6000806000808573ffffffffffffffffffffffffffffffffffffffff166370a08231306040518263ffffffff167c0100000000000000000000000000000000000000000000000000000000028152600401808273ffffffffffffffffffffffffffffffffffffffff1673ffffffffffffffffffffffffffffffffffffffff168152602001915050602060405180830381600087803b158015611dd857600080fd5b505af1158015611dec573d6000803e3d6000fd5b505050506040513d6020811015611e0257600080fd5b81019080805190602001909291905050509250868310151515611e2457600080fd5b600091505b845182101561213457612025600b60009054906101000a900473ffffffffffffffffffffffffffffffffffffffff1673ffffffffffffffffffffffffffffffffffffffff166318160ddd6040518163ffffffff167c0100000000000000000000000000000000000000000000000000000000028152600401602060405180830381600087803b158015611ebb57600080fd5b505af1158015611ecf573d6000803e3d6000fd5b505050506040513d6020811015611ee557600080fd5b8101908080519060200190929190505050612017600b60009054906101000a900473ffffffffffffffffffffffffffffffffffffffff1673ffffffffffffffffffffffffffffffffffffffff166370a082318987815181101515611f4557fe5b906020019060200201516040518263ffffffff167c0100000000000000000000000000000000000000000000000000000000028152600401808273ffffffffffffffffffffffffffffffffffffffff1673ffffffffffffffffffffffffffffffffffffffff168152602001915050602060405180830381600087803b158015611fcd57600080fd5b505af1158015611fe1573d6000803e3d6000fd5b505050506040513d6020811015611ff757600080fd5b81019080805190602001909291905050508a6121b790919063ffffffff16565b6121ef90919063ffffffff16565b90506000811115612127578573ffffffffffffffffffffffffffffffffffffffff1663a9059cbb868481518110151561205a57fe5b90602001906020020151836040518363ffffffff167c0100000000000000000000000000000000000000000000000000000000028152600401808373ffffffffffffffffffffffffffffffffffffffff1673ffffffffffffffffffffffffffffffffffffffff16815260200182815260200192505050602060405180830381600087803b1580156120ea57600080fd5b505af11580156120fe573d6000803e3d6000fd5b505050506040513d602081101561211457600080fd5b8101908080519060200190929190505050505b8180600101925050611e29565b7fb6bcab815b7a952b8759f2f92fc9981dc1156f6c11bf4dc7e9cb3036495e653a600a548789604051808481526020018373ffffffffffffffffffffffffffffffffffffffff1673ffffffffffffffffffffffffffffffffffffffff168152602001828152602001935050505060405180910390a1600193505050509392505050565b6000808314156121ca57600090506121e9565b81830290508183828115156121db57fe5b041415156121e557fe5b8090505b92915050565b600081838115156121fc57fe5b04905092915050565b82805482825590600052602060002090810192821561227e579160200282015b8281111561227d5782518260006101000a81548173ffffffffffffffffffffffffffffffffffffffff021916908373ffffffffffffffffffffffffffffffffffffffff16021790555091602001919060010190612225565b5b50905061228b9190612357565b5090565b50805460018160011615610100020316600290046000825580601f106122b557506122d4565b601f0160209004906000526020600020908101906122d3919061239a565b5b50565b828054600181600116156101000203166002900490600052602060002090601f016020900481019282601f1061231857805160ff1916838001178555612346565b82800160010185558215612346579182015b8281111561234557825182559160200191906001019061232a565b5b509050612353919061239a565b5090565b61239791905b8082111561239357600081816101000a81549073ffffffffffffffffffffffffffffffffffffffff02191690555060010161235d565b5090565b90565b6123bc91905b808211156123b85760008160009055506001016123a0565b5090565b905600a165627a7a72305820edb0db000e410a6d78a868a9777f568e1b6e9fc1a12c895dfc6e88c063c7ffae0029",
  "source": "pragma solidity ^0.4.23;\n\nimport '../zeppelin/token/ERC20/ERC20.sol';\nimport '../zeppelin/ownership/Ownable.sol';\nimport '../zeppelin/math/SafeMath.sol';\nimport './Shareholder.sol';\n\n/**\n * @title Demo Share Voting token\n *\n * @dev Voting mechanism to distribute shares\n **/\n\ncontract DemoShare is Shareholder {\n  using SafeMath for uint256;\n  uint256 constant UINT256_MAX = ~uint256(0);\n\n  struct Proposal {\n    string url;\n    uint256 hash;\n    ERC20 dividendToken;\n    uint256 startedAt;\n    uint256 closedAt;\n    uint256 approvals;\n    uint256 rejections;\n }\n  Proposal internal currentProposal;\n\n  mapping(uint256 => mapping(address => bool)) participants;\n  uint256 internal proposalCount;\n\n  ERC20 public token;\n\n  /**\n   * @dev constructor\n   **/\n  constructor(ERC20 _token) public {\n    token = _token;\n  }\n\n  /**\n   * @dev token\n   */\n  function token() public view returns (ERC20) {\n    return token;\n  }\n\n  /**\n   * @dev update token\n   */\n  function updateToken(ERC20 _token) public {\n    token = _token;\n  }\n\n  /**\n   * @dev current proposal id\n   */\n  function currentProposalId() public view returns (uint256) {\n    return proposalCount;\n  }\n\n  /**\n   * @dev current proposal url\n   */\n  function currentUrl() public view returns (string) {\n    return currentProposal.url;\n  }\n\n  /**\n   * @dev current proposal hash\n   */\n  function currentHash() public view returns (uint256) {\n    return currentProposal.hash;\n  }\n\n  /**\n   * @dev current proposal dividend token\n   */\n  function currentDividendToken() public view returns (ERC20) {\n    return currentProposal.dividendToken;\n  }\n\n  /**\n   * @dev current proposal started at\n  */\n  function startedAt() public view returns (uint256) {\n    return currentProposal.startedAt;\n  }\n\n  /**\n   * @dev current proposal closed at\n   */\n  function closedAt() public view returns (uint256) {\n    return currentProposal.closedAt;\n  }\n\n  /**\n   * @dev current proposal approvals\n   */\n  function voteApprovals() public view returns (uint256) {\n    return currentProposal.approvals;\n  }\n\n  /**\n   * @dev current proposal rejections\n   */\n  function voteRejections() public view returns (uint256) {\n    return currentProposal.rejections;\n  }\n\n  /**\n   * @dev current proposal hasVoted\n   */\n  function hasVoted(address _address) public view returns (bool) {\n    return participants[proposalCount][_address];\n  }\n\n  /**\n   * @dev propose a new vote. Owner only\n   */\n  function proposeVote(string _url, uint256 _hash, ERC20 _dividendToken) public onlyOwner {\n    require(currentProposal.closedAt < now);\n\n    if(proposalCount > 0) {\n      delete currentProposal;\n    }\n    currentProposal = Proposal(_url, _hash, _dividendToken, now, UINT256_MAX, 0, 0);\n    emit NewProposal(proposalCount);\n  }\n\n  /**\n   * @dev close the current vote. Owner only\n   */\n  function closeVote() public onlyOwner {\n    require(currentProposal.closedAt > now);\n \n    //ERC20 dividendToken = currentProposal.dividendToken;\n    //uint256 balance = dividendToken.balanceOf(this);\n    uint256 totalSupply = token.totalSupply();\n\n    if((2*currentProposal.approvals) > totalSupply) {\n//     if(distributeInternal(balance, dividendToken, shareholders)) {\n        emit Approved(proposalCount, totalSupply, currentProposal.approvals, currentProposal.rejections);\n        currentProposal.closedAt = now;\n     //}\n    } else {\n//      if(balance == 0 || dividendToken.transfer(owner, balance)) {\n        emit Rejected(proposalCount, totalSupply, currentProposal.approvals, currentProposal.rejections);\n        currentProposal.closedAt = now;\n     // }\n    }\n  }\n\n  /**\n   * @dev close the current if approval. Owner only\n   */\n  function closeVoteApproval() public onlyOwner {\n    require(currentProposal.closedAt > now);\n    uint256 totalSupply = token.totalSupply();\n\n    emit Approved(proposalCount, totalSupply, currentProposal.approvals, currentProposal.rejections);\n    currentProposal.closedAt = now;\n }\n\n  /**\n   * @dev close the current vote. Owner only\n   */\n  function closeVoteRejection() public onlyOwner {\n    require(currentProposal.closedAt > now);\n    uint256 totalSupply = token.totalSupply();\n\n    emit Rejected(proposalCount, totalSupply, currentProposal.approvals, currentProposal.rejections);\n    currentProposal.closedAt = now;\n  }\n\n  /**\n   * @dev close the current vote. Owner only\n   */\n  function forceCloseVoteNoActions() public onlyOwner {\n    require(currentProposal.closedAt > now);\n    currentProposal.closedAt = now;\n    proposalCount++;\n  }\n\n  /**\n   * @dev approve the current vote\n   */\n  function approveProposal() public {\n    require(currentProposal.closedAt > now);\n    require(!participants[proposalCount][msg.sender]);\n    uint256 balance = token.balanceOf(msg.sender);\n    require(balance > 0);\n\n    if(proposalCount > 0) {\n      delete participants[proposalCount-1][msg.sender];\n    }\n \n    currentProposal.approvals = currentProposal.approvals.add(balance);\n    participants[proposalCount][msg.sender] = true;\n  }\n\n  /**\n   * @dev reject the current vote\n   */\n  function rejectProposal() public {\n   require(!participants[proposalCount][msg.sender]);\n    uint256 balance = token.balanceOf(msg.sender);\n    require(balance > 0);\n\n    if(proposalCount > 0) {\n      delete participants[proposalCount-1][msg.sender];\n    }\n\n    currentProposal.rejections = currentProposal.rejections.add(balance);\n    participants[proposalCount][msg.sender] = true;\n  }\n\n  /**\n   * @dev Distribute token dividend\n   */\n  function distribute() public onlyOwner returns (bool) {\n    require(currentProposal.closedAt < now);\n    \n    ERC20 dividendToken = currentProposal.dividendToken;\n    uint256 balance = dividendToken.balanceOf(this);\n    proposalCount++;\n    return distributeInternal(balance, dividendToken, shareholders);\n  }\n\n  /**\n   * @dev Distribute special dividend\n   */\n  function distributeSpecial(uint256 _dividendAmount, ERC20 _token, address[] _addresses)\n  \tpublic onlyOwner returns (bool) {\n    return distributeInternal(_dividendAmount, _token, _addresses);\n  }\n\n  /**\n   * @dev distribute internal\n   */\n  function distributeInternal(uint256 _dividendAmount, ERC20 _token, address[] _addresses)\n  \tinternal returns (bool) {\n    uint256 balance = _token.balanceOf(this);\n    require(balance >= _dividendAmount);\n\n    for(uint256 i=0; i< _addresses.length; i++) {\n      uint256 value = _dividendAmount.mul(token.balanceOf(_addresses[i])).div(token.totalSupply());\n      if(value > 0) {\n\t_token.transfer(_addresses[i], value);\n      }\n    }\n\n    emit Distribution(proposalCount, address(_token), _dividendAmount);\n    return true;\n  }\n\n  event NewProposal(uint256 proposalId);\n  event Approved(uint256 proposalId, uint256 total, uint256 approvals, uint256 rejections);\n  event Rejected(uint256 proposalId, uint256 total, uint256 approvals, uint256 rejections);\n  event Distribution(uint256 proposalId, address token, uint256 dividendAmount);\n}\n",
  "sourcePath": "/home/node/project/contracts/demo/DemoShare.sol",
  "compiler": {
    "name": "solc",
    "version": "0.4.23+commit.124ca40d.Emscripten.clang"
  },
  "schemaVersion": "2.0.0",
  "updatedAt": "2018-05-08T12:32:36.716Z"
}