{
  "contractName": "DemoVoting",
  "abi": [
    {
      "constant": true,
      "inputs": [],
      "name": "owner",
      "outputs": [
        {
          "name": "",
          "type": "address"
        }
      ],
      "payable": false,
      "stateMutability": "view",
      "type": "function"
    },
    {
      "constant": false,
      "inputs": [
        {
          "name": "newOwner",
          "type": "address"
        }
      ],
      "name": "transferOwnership",
      "outputs": [],
      "payable": false,
      "stateMutability": "nonpayable",
      "type": "function"
    },
    {
      "inputs": [
        {
          "name": "_token",
          "type": "address"
        }
      ],
      "payable": false,
      "stateMutability": "nonpayable",
      "type": "constructor"
    },
    {
      "anonymous": false,
      "inputs": [
        {
          "indexed": false,
          "name": "proposalId",
          "type": "uint256"
        }
      ],
      "name": "NewProposal",
      "type": "event"
    },
    {
      "anonymous": false,
      "inputs": [
        {
          "indexed": false,
          "name": "proposalId",
          "type": "uint256"
        },
        {
          "indexed": false,
          "name": "total",
          "type": "uint256"
        },
        {
          "indexed": false,
          "name": "approvals",
          "type": "uint256"
        },
        {
          "indexed": false,
          "name": "rejections",
          "type": "uint256"
        }
      ],
      "name": "Approved",
      "type": "event"
    },
    {
      "anonymous": false,
      "inputs": [
        {
          "indexed": false,
          "name": "proposalId",
          "type": "uint256"
        },
        {
          "indexed": false,
          "name": "total",
          "type": "uint256"
        },
        {
          "indexed": false,
          "name": "approvals",
          "type": "uint256"
        },
        {
          "indexed": false,
          "name": "rejections",
          "type": "uint256"
        }
      ],
      "name": "Rejected",
      "type": "event"
    },
    {
      "anonymous": false,
      "inputs": [
        {
          "indexed": true,
          "name": "previousOwner",
          "type": "address"
        },
        {
          "indexed": true,
          "name": "newOwner",
          "type": "address"
        }
      ],
      "name": "OwnershipTransferred",
      "type": "event"
    },
    {
      "constant": true,
      "inputs": [],
      "name": "votingToken",
      "outputs": [
        {
          "name": "",
          "type": "address"
        }
      ],
      "payable": false,
      "stateMutability": "view",
      "type": "function"
    },
    {
      "constant": true,
      "inputs": [],
      "name": "currentProposalId",
      "outputs": [
        {
          "name": "",
          "type": "uint256"
        }
      ],
      "payable": false,
      "stateMutability": "view",
      "type": "function"
    },
    {
      "constant": true,
      "inputs": [],
      "name": "currentUrl",
      "outputs": [
        {
          "name": "",
          "type": "string"
        }
      ],
      "payable": false,
      "stateMutability": "view",
      "type": "function"
    },
    {
      "constant": true,
      "inputs": [],
      "name": "currentHash",
      "outputs": [
        {
          "name": "",
          "type": "uint256"
        }
      ],
      "payable": false,
      "stateMutability": "view",
      "type": "function"
    },
    {
      "constant": true,
      "inputs": [],
      "name": "startedAt",
      "outputs": [
        {
          "name": "",
          "type": "uint256"
        }
      ],
      "payable": false,
      "stateMutability": "view",
      "type": "function"
    },
    {
      "constant": true,
      "inputs": [],
      "name": "closedAt",
      "outputs": [
        {
          "name": "",
          "type": "uint256"
        }
      ],
      "payable": false,
      "stateMutability": "view",
      "type": "function"
    },
    {
      "constant": true,
      "inputs": [],
      "name": "voteApprovals",
      "outputs": [
        {
          "name": "",
          "type": "uint256"
        }
      ],
      "payable": false,
      "stateMutability": "view",
      "type": "function"
    },
    {
      "constant": true,
      "inputs": [],
      "name": "voteRejections",
      "outputs": [
        {
          "name": "",
          "type": "uint256"
        }
      ],
      "payable": false,
      "stateMutability": "view",
      "type": "function"
    },
    {
      "constant": true,
      "inputs": [
        {
          "name": "_address",
          "type": "address"
        }
      ],
      "name": "hasVoted",
      "outputs": [
        {
          "name": "",
          "type": "bool"
        }
      ],
      "payable": false,
      "stateMutability": "view",
      "type": "function"
    },
    {
      "constant": false,
      "inputs": [
        {
          "name": "url",
          "type": "string"
        },
        {
          "name": "hash",
          "type": "uint256"
        }
      ],
      "name": "proposeVote",
      "outputs": [],
      "payable": false,
      "stateMutability": "nonpayable",
      "type": "function"
    },
    {
      "constant": false,
      "inputs": [],
      "name": "closeVote",
      "outputs": [],
      "payable": false,
      "stateMutability": "nonpayable",
      "type": "function"
    },
    {
      "constant": false,
      "inputs": [],
      "name": "approveProposal",
      "outputs": [],
      "payable": false,
      "stateMutability": "nonpayable",
      "type": "function"
    },
    {
      "constant": false,
      "inputs": [],
      "name": "rejectProposal",
      "outputs": [],
      "payable": false,
      "stateMutability": "nonpayable",
      "type": "function"
    }
  ],
  "bytecode": "0x608060405234801561001057600080fd5b5060405160208061103583398101806040528101908080519060200190929190505050336000806101000a81548173ffffffffffffffffffffffffffffffffffffffff021916908373ffffffffffffffffffffffffffffffffffffffff16021790555080600960006101000a81548173ffffffffffffffffffffffffffffffffffffffff021916908373ffffffffffffffffffffffffffffffffffffffff16021790555050610f71806100c46000396000f3006080604052600436106100db576000357c0100000000000000000000000000000000000000000000000000000000900463ffffffff168063061c9208146100e057806309eef43e1461010b5780632e8a171614610166578063329d3346146101915780637e056b91146101a85780638da5cb5b146101bf5780639be4cc8c146102165780639ef27b001461022d578063b034012314610258578063d2bbc790146102af578063e08cf07c146102da578063e393173e1461036a578063f21f537d146103dd578063f2fde38b14610408578063feac729d1461044b575b600080fd5b3480156100ec57600080fd5b506100f5610476565b6040518082815260200191505060405180910390f35b34801561011757600080fd5b5061014c600480360381019080803573ffffffffffffffffffffffffffffffffffffffff169060200190929190505050610483565b604051808215151515815260200191505060405180910390f35b34801561017257600080fd5b5061017b6104dc565b6040518082815260200191505060405180910390f35b34801561019d57600080fd5b506101a66104e8565b005b3480156101b457600080fd5b506101bd6106ea565b005b3480156101cb57600080fd5b506101d46108e2565b604051808273ffffffffffffffffffffffffffffffffffffffff1673ffffffffffffffffffffffffffffffffffffffff16815260200191505060405180910390f35b34801561022257600080fd5b5061022b610907565b005b34801561023957600080fd5b50610242610aff565b6040518082815260200191505060405180910390f35b34801561026457600080fd5b5061026d610b0c565b604051808273ffffffffffffffffffffffffffffffffffffffff1673ffffffffffffffffffffffffffffffffffffffff16815260200191505060405180910390f35b3480156102bb57600080fd5b506102c4610b36565b6040518082815260200191505060405180910390f35b3480156102e657600080fd5b506102ef610b43565b6040518080602001828103825283818151815260200191508051906020019080838360005b8381101561032f578082015181840152602081019050610314565b50505050905090810190601f16801561035c5780820380516001836020036101000a031916815260200191505b509250505060405180910390f35b34801561037657600080fd5b506103db600480360381019080803590602001908201803590602001908080601f016020809104026020016040519081016040528093929190818152602001838380828437820191505050505050919291929080359060200190929190505050610be8565b005b3480156103e957600080fd5b506103f2610d18565b6040518082815260200191505060405180910390f35b34801561041457600080fd5b50610449600480360381019080803573ffffffffffffffffffffffffffffffffffffffff169060200190929190505050610d25565b005b34801561045757600080fd5b50610460610e7a565b6040518082815260200191505060405180910390f35b6000600160050154905090565b6000600160060160008373ffffffffffffffffffffffffffffffffffffffff1673ffffffffffffffffffffffffffffffffffffffff16815260200190815260200160002060009054906101000a900460ff169050919050565b60006001800154905090565b60008060009054906101000a900473ffffffffffffffffffffffffffffffffffffffff1673ffffffffffffffffffffffffffffffffffffffff163373ffffffffffffffffffffffffffffffffffffffff1614151561054557600080fd5b600960009054906101000a900473ffffffffffffffffffffffffffffffffffffffff1673ffffffffffffffffffffffffffffffffffffffff166318160ddd6040518163ffffffff167c0100000000000000000000000000000000000000000000000000000000028152600401602060405180830381600087803b1580156105cb57600080fd5b505af11580156105df573d6000803e3d6000fd5b505050506040513d60208110156105f557600080fd5b8101908080519060200190929190505050905060028181151561061457fe5b046001600401541115610681577fa27b68f190419f4f7243c6cac4321df8e895737918e69cd924167a613a84e776600854826001600401546001600501546040518085815260200184815260200183815260200182815260200194505050505060405180910390a16106dd565b7f600d2d6cc90151ad8f438bbd2ea92b6dc142a84516f407919814a5ef5e2d1af2600854826001600401546001600501546040518085815260200184815260200183815260200182815260200194505050505060405180910390a15b4260016003018190555050565b6000426001600301541115156106ff57600080fd5b600160060160003373ffffffffffffffffffffffffffffffffffffffff1673ffffffffffffffffffffffffffffffffffffffff16815260200190815260200160002060009054906101000a900460ff1615151561075b57600080fd5b600960009054906101000a900473ffffffffffffffffffffffffffffffffffffffff1673ffffffffffffffffffffffffffffffffffffffff166370a08231336040518263ffffffff167c0100000000000000000000000000000000000000000000000000000000028152600401808273ffffffffffffffffffffffffffffffffffffffff1673ffffffffffffffffffffffffffffffffffffffff168152602001915050602060405180830381600087803b15801561081857600080fd5b505af115801561082c573d6000803e3d6000fd5b505050506040513d602081101561084257600080fd5b8101908080519060200190929190505050905060008111151561086457600080fd5b61087c81600160040154610e8490919063ffffffff16565b60016004018190555060018060060160003373ffffffffffffffffffffffffffffffffffffffff1673ffffffffffffffffffffffffffffffffffffffff16815260200190815260200160002060006101000a81548160ff02191690831515021790555050565b6000809054906101000a900473ffffffffffffffffffffffffffffffffffffffff1681565b60004260016003015411151561091c57600080fd5b600160060160003373ffffffffffffffffffffffffffffffffffffffff1673ffffffffffffffffffffffffffffffffffffffff16815260200190815260200160002060009054906101000a900460ff1615151561097857600080fd5b600960009054906101000a900473ffffffffffffffffffffffffffffffffffffffff1673ffffffffffffffffffffffffffffffffffffffff166370a08231336040518263ffffffff167c0100000000000000000000000000000000000000000000000000000000028152600401808273ffffffffffffffffffffffffffffffffffffffff1673ffffffffffffffffffffffffffffffffffffffff168152602001915050602060405180830381600087803b158015610a3557600080fd5b505af1158015610a49573d6000803e3d6000fd5b505050506040513d6020811015610a5f57600080fd5b81019080805190602001909291905050509050600081111515610a8157600080fd5b610a9981600160050154610e8490919063ffffffff16565b60016005018190555060018060060160003373ffffffffffffffffffffffffffffffffffffffff1673ffffffffffffffffffffffffffffffffffffffff16815260200190815260200160002060006101000a81548160ff02191690831515021790555050565b6000600160030154905090565b6000600960009054906101000a900473ffffffffffffffffffffffffffffffffffffffff16905090565b6000600160040154905090565b606060016000018054600181600116156101000203166002900480601f016020809104026020016040519081016040528092919081815260200182805460018160011615610100020316600290048015610bde5780601f10610bb357610100808354040283529160200191610bde565b820191906000526020600020905b815481529060010190602001808311610bc157829003601f168201915b5050505050905090565b6000809054906101000a900473ffffffffffffffffffffffffffffffffffffffff1673ffffffffffffffffffffffffffffffffffffffff163373ffffffffffffffffffffffffffffffffffffffff16141515610c4357600080fd5b60c060405190810160405280838152602001828152602001428152602001600019815260200160008152602001600081525060016000820151816000019080519060200190610c93929190610ea0565b506020820151816001015560408201518160020155606082015181600301556080820151816004015560a082015181600501559050506008600081548092919060010191905055507f9a863892f20a6b9c6cec64d611b5864be6373191ce2cacc3b05a299bce3bf80e6008546040518082815260200191505060405180910390a15050565b6000600160020154905090565b6000809054906101000a900473ffffffffffffffffffffffffffffffffffffffff1673ffffffffffffffffffffffffffffffffffffffff163373ffffffffffffffffffffffffffffffffffffffff16141515610d8057600080fd5b600073ffffffffffffffffffffffffffffffffffffffff168173ffffffffffffffffffffffffffffffffffffffff1614151515610dbc57600080fd5b8073ffffffffffffffffffffffffffffffffffffffff166000809054906101000a900473ffffffffffffffffffffffffffffffffffffffff1673ffffffffffffffffffffffffffffffffffffffff167f8be0079c531659141344cd1fd0a4f28419497f9722a3daafe3b4186f6b6457e060405160405180910390a3806000806101000a81548173ffffffffffffffffffffffffffffffffffffffff021916908373ffffffffffffffffffffffffffffffffffffffff16021790555050565b6000600854905090565b60008183019050828110151515610e9757fe5b80905092915050565b828054600181600116156101000203166002900490600052602060002090601f016020900481019282601f10610ee157805160ff1916838001178555610f0f565b82800160010185558215610f0f579182015b82811115610f0e578251825591602001919060010190610ef3565b5b509050610f1c9190610f20565b5090565b610f4291905b80821115610f3e576000816000905550600101610f26565b5090565b905600a165627a7a72305820ae3b31fef1aa0eba9a4a8f32e922da8f0d624629ea54f143915d155f70b0b43f0029",
  "source": "pragma solidity ^0.4.23;\n\nimport '../zeppelin/token/ERC20/ERC20Basic.sol';\nimport '../zeppelin/ownership/Ownable.sol';\nimport '../zeppelin/math/SafeMath.sol';\n\n/**\n * @title Voting token\n *\n * @dev Generic Voting mechanism\n **/\n\ncontract DemoVoting is Ownable {\n  using SafeMath for uint256;\n  uint256 constant UINT256_MAX = ~uint256(0);\n\n  struct Proposal {\n    string url;\n    uint256 hash;\n    uint256 startedAt;\n    uint256 closedAt;\n    uint256 approvals;\n    uint256 rejections;\n    mapping(address => bool) participants;\n  }\n  Proposal internal currentProposal;\n  uint256 internal proposalCount;\n\n  ERC20Basic public votingToken;\n\n  /**\n   * @dev constructor\n   **/\n  constructor(ERC20Basic _token) public {\n    votingToken = _token;\n  }\n\n  /**\n   * @dev voting token\n   */\n  function votingToken() public view returns (ERC20Basic) {\n    return votingToken;\n  }\n\n  /**\n   * @dev current proposal id\n   */\n  function currentProposalId() public view returns (uint256) {\n    return proposalCount;\n  }\n\n  /**\n   * @dev current proposal url\n   */\n  function currentUrl() public view returns (string) {\n    return currentProposal.url;\n  }\n\n  /**\n   * @dev current proposal hash\n   */\n  function currentHash() public view returns (uint256) {\n    return currentProposal.hash;\n  }\n\n  /**\n   * @dev current proposal started at\n  */\n  function startedAt() public view returns (uint256) {\n    return currentProposal.startedAt;\n  }\n\n  /**\n   * @dev current proposal closed at\n   */\n  function closedAt() public view returns (uint256) {\n    return currentProposal.closedAt;\n  }\n\n  /**\n   * @dev current proposal approvals\n   */\n  function voteApprovals() public view returns (uint256) {\n    return currentProposal.approvals;\n  }\n\n  /**\n   * @dev current proposal rejections\n   */\n  function voteRejections() public view returns (uint256) {\n    return currentProposal.rejections;\n  }\n\n  /**\n   * @dev current proposal hasVoted\n   */\n  function hasVoted(address _address) public view returns (bool) {\n    return currentProposal.participants[_address];\n  }\n\n  /**\n   * @dev propose a new vote. Owner only\n   */\n  function proposeVote(string url, uint256 hash) public onlyOwner {\n    currentProposal = Proposal(url, hash, now, UINT256_MAX, 0, 0);\n    proposalCount++;\n    emit NewProposal(proposalCount);\n  }\n\n  /**\n   * @dev close the current vote. Owner only\n   */\n  function closeVote() public onlyOwner {\n   uint256 totalSupply = votingToken.totalSupply();\n    if(currentProposal.approvals > totalSupply / 2) {\n      emit Approved(proposalCount, totalSupply, currentProposal.approvals, currentProposal.rejections);\n    } else {\n      emit Rejected(proposalCount, totalSupply, currentProposal.approvals, currentProposal.rejections);\n    }\n    currentProposal.closedAt = now;\n  }\n\n  /**\n   * @dev approve the current vote\n   */\n  function approveProposal() public {\n    require(currentProposal.closedAt > now);\n    require(!currentProposal.participants[msg.sender]);\n    uint256 balance = votingToken.balanceOf(msg.sender);\n    require(balance > 0);\n\n    currentProposal.approvals = currentProposal.approvals.add(balance);\n    currentProposal.participants[msg.sender] = true;\n  }\n\n  /**\n   * @dev reject the current vote\n   */\n  function rejectProposal() public {\n    require(currentProposal.closedAt > now);\n    require(!currentProposal.participants[msg.sender]);\n    uint256 balance = votingToken.balanceOf(msg.sender);\n    require(balance > 0);\n\n    currentProposal.rejections = currentProposal.rejections.add(balance);\n    currentProposal.participants[msg.sender] = true;\n  }\n\n  event NewProposal(uint256 proposalId);\n  event Approved(uint256 proposalId, uint256 total, uint256 approvals, uint256 rejections);\n  event Rejected(uint256 proposalId, uint256 total, uint256 approvals, uint256 rejections);\n}\n",
  "sourcePath": "/home/node/project/contracts/demo/DemoVoting.sol",
  "compiler": {
    "name": "solc",
    "version": "0.4.23+commit.124ca40d.Emscripten.clang"
  },
  "schemaVersion": "2.0.0",
  "updatedAt": "2018-05-02T20:16:54.389Z"
}