{
  "contractName": "Monthly",
  "abi": [
    {
      "constant": true,
      "inputs": [
        {
          "name": "timestamp",
          "type": "uint256"
        }
      ],
      "name": "toDate",
      "outputs": [
        {
          "name": "",
          "type": "uint256[2]"
        }
      ],
      "payable": false,
      "stateMutability": "pure",
      "type": "function"
    },
    {
      "constant": false,
      "inputs": [],
      "name": "getCurrentYear",
      "outputs": [
        {
          "name": "",
          "type": "uint256"
        }
      ],
      "payable": false,
      "stateMutability": "nonpayable",
      "type": "function"
    },
    {
      "constant": false,
      "inputs": [],
      "name": "getCurrentMonth",
      "outputs": [
        {
          "name": "",
          "type": "uint256"
        }
      ],
      "payable": false,
      "stateMutability": "nonpayable",
      "type": "function"
    }
  ],
  "bytecode": "0x6060604052341561000f57600080fd5b61031b8061001e6000396000f300606060405260043610610057576000357c0100000000000000000000000000000000000000000000000000000000900463ffffffff168063a11e22d91461005c578063ce41607a146100bb578063ddd1b67e146100e4575b600080fd5b341561006757600080fd5b61007d600480803590602001909190505061010d565b6040518082600260200280838360005b838110156100a857808201518184015260208101905061008d565b5050505090500191505060405180910390f35b34156100c657600080fd5b6100ce6101c0565b6040518082815260200191505060405180910390f35b34156100ef57600080fd5b6100f76101de565b6040518082815260200191505060405180910390f35b6101156102c8565b600080600080620151808681151561012957fe5b0493506237bb496139bc85612710020181151561014257fe5b049250612710836237bb490281151561015757fe5b0484039150600082101561018357600183039250612710836237bb490281151561017d57fe5b04840391505b6001610bf46034846064020181151561019857fe5b0401905060408051908101604052806107b28501815260200182815250945050505050919050565b6000426002541115156101d6576101d56101fc565b5b600054905090565b6000426002541115156101f4576101f36101fc565b5b600154905090565b6102046102c8565b60006002541415610253576102184261010d565b905080600060028110151561022957fe5b602002015160008190555080600160028110151561024357fe5b6020020151600181905550610283565b600c60015414156102765760018081905550600160005401600081905550610282565b60018054016001819055505b5b600160646034600154610bf4020381151561029a57fe5b046127106139bc6237bb496107b26000540302038115156102b757fe5b040101620151800260028190555050565b60408051908101604052806002905b60008152602001906001900390816102d757905050905600a165627a7a72305820094011f259d6d9f9bd45418962ac7e8f45f24931ea2c5001e0610e0552a28c140029",
  "source": "pragma solidity ^0.4.11;\n\n/**\n * @title Monthly\n * @dev Base contract which allows children to determine the current month.\n * WARNING : all months are approximated to be 30.436875 days\n */\ncontract Monthly {\n  // (365*year + year/4 - year/100 + year/400) == 3652425 * year / 10000\n \n  uint256 internal currentYear; \n  uint256 internal currentMonth;\n  uint256 internal nextMonthBegin;\n\n  /**\n   * @dev function returning the year/month of a timestamp\n   */\n  function toDate(uint256 timestamp) pure public returns (uint256[2]) {\n    uint256 dayNumber = timestamp / 86400;\n    uint256 year = (10000*dayNumber + 14780)/3652425;\n\n    uint256 dayNumberInYear = dayNumber - (3652425 * year / 10000);\n    if (dayNumberInYear < 0) {\n      year = year - 1;\n      dayNumberInYear = dayNumber - (3652425 * year / 10000);\n    }\n    uint256 month = (100*dayNumberInYear + 52)/3060 + 1;\n\n    return [year+1970, month];\n  }\n\n  /**\n   * @dev function incrementing the current month and current year\n   * defines month and year if undefined\n   */\n  function incrMonth() internal {\n    if(nextMonthBegin == 0) {\n      uint256[2] memory date = toDate(now);\n      currentYear = date[0];\n      currentMonth = date[1];\n    } else {\n      if(currentMonth == 12) {\n        currentMonth=1;\n        currentYear=currentYear+1;\n      } else {\n        currentMonth=currentMonth+1;\n      }\n    }\n\n    nextMonthBegin=86400 * (((currentYear-1970)*3652425 - 14780)/10000 + (3060*(currentMonth) - 52)/100 + 1);\n  }\n\n  /**\n   * @dev function returning the id of the current month\n   */\n  function getCurrentMonth() public returns (uint256) {\n    if(nextMonthBegin <= now) {\n      incrMonth();\n    }\n    return currentMonth;\n  }\n\n  /**\n   * @dev function returning the id of the current year\n   */\n  function getCurrentYear() public returns (uint256) {\n    if(nextMonthBegin <= now) {\n      incrMonth();\n    }\n    return currentYear;\n  }\n\n\n}\n",
  "sourcePath": "/home/node/projects/fiatToken/contracts/Monthly.sol",
  "compiler": {
    "name": "solc",
    "version": "0.4.18+commit.9cf6e910.Emscripten.clang"
  },
  "schemaVersion": "1.0.1",
  "updatedAt": "2017-12-08T01:10:17.802Z"
}